:100000000C94EA000C9422050C94FB040C94D40488
:100010000C94AD040C9412010C9412010C948604FF
:100020000C9412010C9411090C94B00C0C94220D38
:100030000C9412010C9412010C9412010C941201F4
:100040000C9412010C9412010C9412010C941201E4
:100050000C9412010C9412010C9412010C943C04A7
:100060000C9412010C9412010C9412010C941201C4
:100070000C9412010C9412010C9412010C941201B4
:100080000C9412010C9412010C9412010C941201A4
:100090000C9449050C9412010C9412010C94120159
:1000A0000C9412010C9472080C9412016A0F6D0FDB
:1000B0005C0F600F660F8E0F8E0F8E0F710F750F16
:1000C000790F7F0F830F8E0F890F00000000230030
:1000D000260029002C002F0000000000240027002B
:1000E0002A002D0030000000000200090F0000036C
:1000F0000401000C000000000000000000000000EF
:100100000000000000080B000202020100090400C8
:100110000001020200000524001001052401010174
:10012000042402060524060001070581031000408F
:1001300009040100020A0000000705020240000055
:10014000070583024000000403090412010002EFC6
:10015000020140FB1F0023000101020301506F6CEC
:100160006F6C7520436F72706F726174696F6E008F
:10017000506F6C6F6C7520412D5374617220333257
:100180005534000408020110408040102040804097
:1001900080080204018040201002011080102040DD
:1001A000402000000000250028002B002E00310018
:1001B000040404040403040502020202040302020C
:1001C00002020606060606060404020202040400F1
:1001D000361CC21411241FBECFEFDAE0DEBFCDBF44
:1001E00024E0A0ECB2E001C01D92AB3AB207E1F707
:1001F00012E0A0E0B1E0EEEEF3E402C005900D9253
:10020000A03CB107D9F710E0C9EED0E004C02197B7
:10021000FE010E94D81FC83ED107C9F70E94D8141A
:100220000C94EA210C940000089585ED8093BC00A5
:100230008091BC0084FDFCCF1092C20308954091D0
:10024000F702262F30E0240F311D21323105DCF476
:100250002091C2032430C9F4FC0180E090E08617AD
:1002600058F43091F7022191DC01AB52BD4FA30F3E
:10027000B11D2C930196F3CF8091F702680F609324
:10028000F70280E0089581E0089582E008950895DE
:10029000E091C4038091C303E81730F4F0E0EB531E
:1002A000FC4F808190E008958FEF9FEF089590912B
:1002B000C4038091C303981750F4E92FF0E0EB5387
:1002C000FC4F208130E09F5F9093C40302C02FEF6A
:1002D0003FEFC90108958091C30390E02091C403CA
:1002E000821B91090895CF92DF92EF92FF920F93B4
:1002F0001F93CF93DF937C01262F972F8A01809144
:100300007803882391F0C62FD72F6E01C40ED51E17
:10031000CC15DD0571F06991D701ED91FC9101904B
:10032000F081E02DC7010995F3CF642F822F0E9441
:100330001F01C801DF91CF911F910F91FF90EF90A6
:10034000DF90CF900895CF93DF931F92CDB7DEB7A4
:100350006983209178032223D1F020919B032032DE
:1003600040F021E030E0FC013383228380E090E024
:1003700015C080917903E82FF0E0E658FC4F998191
:1003800090838F5F8093790380939B0305C061E026
:10039000CE0101960E941F0181E090E00F90DF9155
:1003A000CF910895089580E090E0089580913903F9
:1003B000E0913A03F0913B03882311F0849101C04E
:1003C00080819FEB980F9A3110F4805E08958032FF
:1003D00069F420913A0330913B03A9014F5F5F4FCD
:1003E00050933B0340933A03232B01F708951F9347
:1003F000CF93DF930E94D601C0E0D0E01AE090EDE9
:10040000980F9A30B8F41C9F90011D9F300D112455
:10041000E901C80FD11D87FDDA95E09780913A0375
:1004200090913B03019690933B0380933A030E9483
:10043000D601E5CFCE01DF91CF911F9108952F9284
:100440003F924F925F926F927F928F929F92AF9264
:10045000BF92CF92DF92EF92FF920F931F93CF93B1
:10046000DF93CDB7DEB727970FB6F894DEBF0FBE88
:10047000CDBF9F838E831B014D838091D10281115B
:100480001BC081E08093D102109272001092C000D4
:1004900094E09093C10099E09093C2008093C300D0
:1004A00083E08093BF0088EE8093D1001092BF005C
:1004B0001092D200579A7894109213012E813F81A6
:1004C00037FF05C03F773F832E830AE001C001E07C
:1004D00088E2089F802D112490E04E815F814817AB
:1004E000590708F4C2C0013039F44131574220F0B5
:1004F000E0E1F7E2FF83EE83802E912CA12CB12C5A
:100500008E819F81969587959C0140E050E02983DC
:100510003A834B835C834E815F812A01612C712C6D
:10052000A501940160E072E18AE790E00E94671FF4
:1005300029813A814B815C81620F731F841F951F53
:10054000A30192010E94B91F69017A01EE24FF24E0
:1005500010E01F5FC11434E0D306E104F10408F198
:1005600020E032E14AE750E0012E04C0559547955E
:10057000379527950A94D2F7C501B4010E94671FE9
:1005800029813A814B815C81620F731F841F951F03
:10059000A30192010E94B91F69017A01EE24FF2490
:1005A000D8CF0A3049F48E819F8105966AE070E0C9
:1005B0000E94831F7F836E834E815F81483E83E06C
:1005C000580759F09101DA010E94B01E28EE33E07D
:1005D00040E050E00E94B91F190110927200809112
:1005E000C100807F182B1093C100BB27AF2D9E2D1B
:1005F0008D2D8093BF00C092D1002D81203108F055
:100600002FE080E190E0821B910904C0F694E7940A
:10061000D794C7948A95D2F78D2D99278093BF00E0
:10062000C092D2003092D3022092D20289B38FEFCF
:1006300089BB84E08093720027960FB6F894DEBFE2
:100640000FBECDBFDF91CF911F910F91FF90EF9023
:10065000DF90CF90BF90AF909F908F907F906F90E2
:100660005F904F903F902F9008959F838E8344CF4B
:100670002E98269A2D98259A2A98229A2998219A76
:1006800080EA8093800081E18093810080E991E09D
:1006900090938700809386001092890010928800C2
:1006A00010928B0010928A00089524982C9A6A98D0
:1006B000729A6E98769A8098889A81E08093680002
:1006C00090E190936B008BBB8AE993E090931201C9
:1006D00080931101EAE6F0E080818F7C8061808365
:1006E000EE9A8CB182FB882780F98093CE0293B179
:1006F0002091CE0294FB882780F982278093CD0237
:100700001092CC021092CB021092CA028FB181706B
:100710008093C9029CB12091C90296FB882780F979
:1007200082278093C8021092C7021092C6021092CC
:10073000C50208954FB141708CB186FB882780F9BE
:1007400084272091C8025091C9026091C60270911D
:10075000C702942F9227292F30E0982F9527291B25
:100760003109260F371F3093C7022093C60220910C
:10077000C8029091C902821729F0491719F091E037
:100780009093C5028093C8024093C90208950F93C5
:100790001F93CF93DF93EC01888581110FC081E017
:1007A00088878A85882311F062E001C060E089852E
:1007B0000E94BF0F8FE090E00197F1F7298530E0AC
:1007C000F901EA51FF4F8491F901ED57FE4F049171
:1007D000F901E055FE4F1491112391F081110E940F
:1007E000520FE12FF0E0EE0FFF1FE653FF4FA591F0
:1007F000B491EC91E02331E009F430E0832F02C0A2
:1008000080E090E02B8582278170DF91CF911F914E
:100810000F910895CF93DF93A2EEB0E04C911C921C
:10082000E9EEF0E050811082C0EFD0E068811882DC
:1008300020E05D9921605599226055985D9A80E18C
:100840008A95F1F739B121FB0EF0559820FB0EF097
:100850005D980EF45D9A21FB0EF4559A1082688320
:1008600050834C9335FB882780F990E021E0822764
:100870008170DF91CF9108951F920F920FB60F9262
:1008800011242F933F938F939F93AF93BF938091A6
:10089000690390916A03A0916B03B0916C0330914E
:1008A0001C0323E0230F2D3720F40196A11DB11D59
:1008B00005C026E8230F0296A11DB11D20931C033D
:1008C0008093690390936A03A0936B03B0936C03C6
:1008D00080916D0390916E03A0916F03B0917003AE
:1008E0000196A11DB11D80936D0390936E03A0939B
:1008F0006F03B0937003BF91AF919F918F913F9120
:100900002F910F900FBE0F901F9018951F920F926E
:100910000FB60F9211242F933F934F935F936F93D2
:100920007F938F939F93AF93BF93EF93FF93E09148
:100930001101F09112010995FF91EF91BF91AF91D3
:100940009F918F917F916F915F914F913F912F91E7
:100950000F900FBE0F901F9018951F920F920FB619
:100960000F9211242F933F934F935F936F937F9335
:100970008F939F93AF93BF93EF93FF93E0910F01FA
:10098000F09110010995FF91EF91BF91AF919F9167
:100990008F917F916F915F914F913F912F910F9028
:1009A0000FBE0F901F9018951F920F920FB60F92C7
:1009B00011242F933F934F935F936F937F938F9364
:1009C0009F93AF93BF93EF93FF93E0910D01F0914D
:1009D0000E010995FF91EF91BF91AF919F918F917A
:1009E0007F916F915F914F913F912F910F900FBE2B
:1009F0000F901F9018951F920F920FB60F9211240F
:100A00002F933F934F935F936F937F938F939F9316
:100A1000AF93BF93EF93FF93E0910B01F0910C0123
:100A20000995FF91EF91BF91AF919F918F917F9128
:100A30006F915F914F913F912F910F900FBE0F904B
:100A40001F9018951F920F920FB60F9211242F939B
:100A50003F934F935F936F937F938F939F93AF9346
:100A6000BF93EF93FF93E0910901F0910A0109957B
:100A7000FF91EF91BF91AF919F918F917F916F9176
:100A80005F914F913F912F910F900FBE0F901F904C
:100A900018951F920F920FB60F9211242F933F9328
:100AA0004F935F936F937F938F939F93AF93BF9376
:100AB000EF93FF938091B900887F803609F49CC042
:100AC00068F5883209F45BC090F4803109F454C0B1
:100AD00038F4882309F4F6C0883009F44DC0F6C014
:100AE000883109F44CC0803209F45DC0EFC0803415
:100AF00009F468C048F4803309F455C0883309F01C
:100B0000E5C08093C003D8C0803509F44FC0883554
:100B100009F45DC0883409F0D9C0D6C0883909F419
:100B2000C7C0A8F4883709F467C038F4883609F4D8
:100B300063C0803709F460C0C9C0883809F4B8C000
:100B4000803909F45FC0803809F0C0C05BC0803BC9
:100B500009F486C038F4803A09F466C0883A09F48A
:100B60007FC0B4C0803C09F4A7C0883C09F4A4C08D
:100B7000883B09F48AC0AAC08091BD0310C090913F
:100B8000BF038091BE03981770F5E091BF0381E029
:100B90008E0F8093BF03F0E0E456FC4F808180937A
:100BA000BB0085EC86C08093C0038EC0E091BF037C
:100BB00081E08E0F8093BF038091BB00F0E0E4568C
:100BC000FC4F80839091BF038091BE036EC0E09183
:100BD000BF0381E08E0F8093BF038091BB00F0E0E4
:100BE000E456FC4F80838091C10381116DC081E088
:100BF0008093BC0384EA61C083E08093C2031092B7
:100C00001B03CFCF80911B03803208F051C0E091CD
:100C10001B0381E08E0F80931B038091BB00F0E0EB
:100C2000E550FD4F8083BDCF85EC8093BC001092D2
:100C3000C20380911B03803230F4E0911B03F0E08B
:100C4000E550FD4F108260911B0370E0E091F902C6
:100C5000F091FA028BEF92E0099510921B0336C0D7
:100C600084E08093C2031092F8021092F702E091A0
:100C7000F502F091F60209958091F702811105C005
:100C800081E08093F7021092D502E091F80281E0B2
:100C90008E0F8093F802F0E0EB52FD4F808180933D
:100CA000BB009091F8028091F702981708F479CF71
:100CB00085E88093BC000AC085EC8093BC0010924C
:100CC000C20304C01092C0030E941501FF91EF916E
:100CD000BF91AF919F918F917F916F915F914F9154
:100CE0003F912F910F900FBE0F901F9018951F935B
:100CF000CF93DF93EC01E881F9810190F081E02D41
:100D00000995182F0E94DF102A81213069F028F000
:100D10002230B9F02330E1F026C0111124C07C83C9
:100D20006B8381E08A8320C0112311F01A821BC0DB
:100D30002B813C81621B730B6F307105A8F082E040
:100D400005C0112389F07C836B8383E08A830BC009
:100D50001123A9F32B813C81621B730B6F3071054A
:100D600010F01A8201C010E0812FDF91CF911F9106
:100D700008956F927F928F929F92AF92BF92CF927F
:100D8000DF92EF92FF920F931F93CF93DF93909098
:100D900008018091D402882321F0809138038111C9
:100DA00088C17724739470ECA72E7DE5B72EEAE016
:100DB0006E2EF4E08F2EA0EDCA2EA7E0DA2EB4E05E
:100DC000EB2EF12C04EF11E0CFE0D0E00E94D60131
:100DD00020913A0330913B032F5F3F4F30933B0309
:100DE00020933A03853609F45EC07CF5813609F418
:100DF0009EC024F58C3309F452C08E3309F44DC0E3
:100E0000813209F08FC080920801D0920501C09212
:100E10000401F0920701E092060110930301009390
:100E20000201D0930101C09300011092D40290906E
:100E300008018091020190910301C8CF833689F1A6
:100E40000CF478C000E022E077C08D36A9F16CF494
:100E5000873679F15CF18C3609F064C00E94F701A5
:100E600090930701809306014EC08237D1F14CF474
:100E70008F3609F057C00E94F701982E8093080121
:100E8000A5CF843789F1863709F04CC00E94F7015D
:100E9000909301018093000199CF939497CF9A94F6
:100EA00095CF00E01FC000E024E046C000E025E050
:100EB00043C000E027E040C00E94D6018C3619F400
:100EC0001092D40204C07092D40210923803809120
:100ED0003A0390913B03019690933B0380933A032E
:100EE00075CF01E020E028C00E94F701BC01C501D8
:100EF0000E94831F669EC001679E900D11249093EF
:100F00000501809304018091040190910501609195
:100F10000601709107010E94831F70930301609383
:100F2000020154CF10923B0310923A03CCC000E070
:100F300029E002C000E02BE0122F3CE0939E100D50
:100F400011240E94D601982F977F933259F48091F3
:100F50003A0390913B03019690933B0380933A03AD
:100F60001F5FEFCF8D3269F480913A0390913B037C
:100F7000019690933B0380933A0311500E94D6014F
:100F8000F1CFC0910201D09103018153883058F410
:100F9000C0910401D09105010E94F701BC01CE016E
:100FA0000E94831FEB017E01F694E7940E94D60114
:100FB0008E3261F480913A0390913B0301969093B5
:100FC0003B0380933A03CE0DDF1DEECFFE018091EF
:100FD000D402882349F0CE019695879580933803F3
:100FE00080913803E81BF109C0910001D091010103
:100FF000011104C01F3F11F0C11105C040E0BF0145
:1010000088EE93E046C0113130F020EF210F2036FA
:1010100018F02FE501C020E0822F6CE00E94771FBE
:10102000682F74EF7603A0011124BA01620F711DBD
:101030009B016C30710540F4220F331FD901AA5D6A
:10104000BE4F2D913C9102C020E030E0873081F00E
:10105000082E02C0220F331F0A94E2F7823028F0D4
:10106000C90105966AE070E00CC0C90190580CC037
:10107000C90126E0880F991F2A95E1F7029665E0DD
:1010800070E00E94831FCB014C2FC03108F04FE06D
:10109000BF01DF91CF911F910F91FF90EF90DF90F3
:1010A000CF90BF90AF909F908F907F906F900C9457
:1010B0001F026091380370E040E088EE93E00E94E8
:1010C0001F0210923803DF91CF911F910F91FF9073
:1010D000EF90DF90CF90BF90AF909F908F907F90D8
:1010E0006F9008951F920F920FB60F9211242F93B5
:1010F0003F934F935F936F937F938F939F93AF93A0
:10110000BF93EF93FF938091D2029091D3029C0101
:10111000215031093093D3022093D202892B11F54B
:101120001092720078948091C100807F84608093D7
:10113000C10083E08093BF0088EE8093D1001092BD
:10114000BF001092D20081E08093130180913A0396
:1011500090913B03892B31F08091D002811102C024
:101160000E94B906FF91EF91BF91AF919F918F912E
:101170007F916F915F914F913F912F910F900FBE93
:101180000F901F901895CF93DF93EC018091CF02C1
:10119000811105C081E08093CF020E943803D7FF00
:1011A00005C0D195C195D10981E001C080E0CD3263
:1011B00091E0D90714F0CCE2D1E0D0938900C0933C
:1011C0008800882311F0299A01C02998219ADF917B
:1011D000CF910895CF93DF93EC018091CF028111DD
:1011E00005C081E08093CF020E943803D7FF05C07D
:1011F000D195C195D10981E001C080E0CD3291E067
:10120000D90714F0CCE2D1E0D0938B00C0938A00D0
:10121000882311F02A9A01C02A98229ADF91CF914F
:1012200008951F920F920FB60F9211242F933F93A0
:101230004F935F936F937F938F939F938CB190E0C5
:101240009595879595958795482F417023B130E006
:1012500054E0359527955A95E1F7822793278170B9
:101260002091CD025091CE026091CB027091CC02C0
:10127000942F9227292F30E0982F9527291B310989
:10128000260F371F3093CC022093CB022091CD0242
:101290009091CE02821729F0491719F091E09093AE
:1012A000CA028093CD024093CE029F918F917F918D
:1012B0006F915F914F913F912F910F900FBE0F90C3
:1012C0001F901895CF93DF931F92CDB7DEB720E024
:1012D00030E048EA52E40E94B01D20E030E040E4F3
:1012E00051E40E94B01D20E030E040E850E40E944C
:1012F000B01D20E030E040EC50E40E94BF1E20E032
:1013000030E04AE754E40E94BF1E20E030E040EAAB
:1013100051E40E94BF1E0E94311F862F062E000C32
:10132000990B69830E9445146981862F0F90DF9184
:10133000CF910895811102C0289A01C02898209A5F
:1013400008950F931F930E9411120E9493116091B0
:101350008F0470919004CB01770FAA0BBB0B009107
:101360002003109121032091220330912303BC011B
:10137000CD01601B710B820B930B2DE130E040E03F
:1013800050E00E94B91F20934003309341034093E3
:10139000420350934303AAE0B0E00E946E1E009106
:1013A0003C0310913D0320913E0330913F03DC014B
:1013B000CB01800F911FA21FB31F80933C0390931A
:1013C0003D03A0933E03B0933F038091C00281117F
:1013D00005C081E08093C0020E945503F8942091DB
:1013E000CB023091CC0278948091C3029091C402D8
:1013F000A901481B590BCA01092E000CAA0BBB0BF3
:1014000080932C0390932D03A0932E03B0932F036E
:101410004091340350913503609136037091370346
:10142000840F951FA61FB71F809334039093350335
:10143000A0933603B09337033093C4022093C302C2
:101440008091C002811105C081E08093C0020E949A
:101450005503F8942091C6023091C7027894809188
:10146000C1029091C202A901481B590BCA01092E61
:10147000000CAA0BBB0B8093280390932903A09325
:101480002A03B0932B0340913003509131036091B4
:10149000320370913303840F951FA61FB71F8093EB
:1014A000300390933103A0933203B093330330930E
:1014B000C2022093C1021F910F910895CF9380E043
:1014C00090E00E94EA0880E090E00E94C308109239
:1014D000720085E791E090933B0380933A0310926A
:1014E0003903109238030E94B9065D98559A81E03D
:1014F0000E949A09479A3F9A809113018823E1F349
:1015000080913A0390913B03892BB1F784ED9EEFD4
:101510000E94EA0884ED9EEF0E94C30868EC70E028
:1015200080E090E00E9420108CE291E00E94EA08A6
:101530008CE291E00E94C308CEE16AE070E080E0B6
:1015400090E00E9420100E94A10980913C0390919C
:101550003D03A0913E03B0913F038035934CA1051C
:10156000B1052CF487E891E00E94A71202C0C15097
:1015700021F78CE291E0A0E0B0E080932403909307
:101580002503A0932603B0932703109234031092EF
:1015900035031092360310923703109230031092E5
:1015A00031031092320310923303CF91089540918A
:1015B00073035091740320917103309172034217A9
:1015C0005307B4F49091E8009570E1F39091E8002E
:1015D00092FD19C08093F100809173039091740380
:1015E00001968F739927892B19F48EEF8093E80069
:1015F0008091730390917403019690937403809388
:10160000730381E0089580E00895DF92EF92FF92E6
:101610000F931F93CF93DF93D82E8A017B01E40EA3
:10162000F51EEB01CE15DF0571F0D7FE03C0FE01FC
:10163000849101C088810E94D70A21968111F2CF3E
:101640008FEF9FEF01C0C801DF91CF911F910F91E4
:10165000FF90EF90DF900895615030F02091F100FD
:10166000FC0120830196F8CF289884E680937603C6
:101670000895CF92DF92EF92FF920F931F93CF9333
:10168000DF936C017A018B01C0E0D0E0CE15DF055D
:1016900089F0D8016D918D01D601ED91FC910190F9
:1016A000F081E02DC6010995892B11F47E0102C05D
:1016B0002196ECCFC701DF91CF911F910F91FF9041
:1016C000EF90DF90CF900895CF93DF931F92CDB727
:1016D000DEB76983DC01ED91FC910280F381E02D9E
:1016E00041E050E0BE016F5F7F4F09950F90DF91A1
:1016F000CF91089583E08093E9008091F2008823E0
:1017000019F08AE38093E8000895FC0184859585AB
:1017100097FD0BC09FB7F89482E08093E900809119
:10172000F2009FBF90E0019608959FB7F89482E081
:101730008093E9008091F2009FBF90E008950E949D
:10174000D5210F931F93CF93DF93EC01888199816B
:10175000009729F02A813B812617370788F48B01EF
:101760006F5F7F4F0E940B21009761F09983888300
:101770001B830A832C813D81232B11F4FC011082F1
:1017800081E001C080E0DF91CF911F910F9108951A
:101790000F931F93CF93DF931F92CDB7DEB782E0F5
:1017A000898342E450E065E071E080E80E94050B27
:1017B0000E94AE14DC0112960D911C911397011535
:1017C000110569F0D801ED91FC910280F381E02DC3
:1017D000BE016F5F7F4FC801099597FF07C08981E0
:1017E0000F90DF91CF911F910F910895F80100851F
:1017F0001185E5CF0E949D1490E008950F931F93EB
:10180000CF93DF931F92CDB7DEB78C01FC018485A7
:10181000958597FF0EC0CE0101960E947314019723
:1018200019F4298130E002C02FEF3FEFF80135872E
:101830002487F801848595850F90DF91CF911F91C2
:101840000F910895CF93DF931F92CDB7DEB7FC01C0
:101850008485958597FD05C02FEF3FEF3587248759
:101860000BC0CE0101960E947314019719F489816F
:1018700090E002C08FEF9FEF0F90DF91CF9108951E
:10188000EF92FF920F931F93CF93DF9300D0CDB7CA
:10189000DEB78C0169831A82FC01E480F580FFEFDA
:1018A000EF1AFF0AB7010E94A10B882381F0F8010B
:1018B0002081318184819581BE016F5F7F4F820FCE
:1018C000931F0E94E321F801F582E48281E00F90EA
:1018D0000F90DF91CF911F910F91FF90EF9008959E
:1018E000EF92FF920F931F93CF93DF93EC017B0155
:1018F0008A01BA010E94A10B2881398181110DC092
:101900002115310519F0C9010E947320198218822E
:101910001D821C821B821A8206C01D830C83B701A4
:10192000C9010E94E321CE01DF91CF911F910F9158
:10193000FF90EF900895FC011182108213821282B1
:10194000158214826115710551F0FB010190002090
:10195000E9F73197AF01461B570B0C94700C0895B3
:101960001F920F920FB60F9211248F939F93809125
:10197000E1009091E100937F9093E10083FF0FC01D
:101980001092E90091E09093EB001092EC0092E34A
:101990009093ED001092770398E09093F00082FF0F
:1019A00020C093E09093E9009091F200992319F000
:1019B0009AE39093E80090917503992339F0909100
:1019C0007503915090937503992389F19091760353
:1019D000992339F09091760391509093760399234F
:1019E00041F184FF10C08091E2008E7E816080937F
:1019F000E2008091E1008F7E8093E10080911E03E0
:101A00008E7E806111C080FF16C08091E2008E7EC4
:101A100080618093E2008091E1008E7E8093E100FE
:101A200080911E038E7E816080931E0304C05D9AA8
:101A3000CDCF289AD6CF9F918F910F900FBE0F9048
:101A40001F9018951F920F920FB60F921124CF92EC
:101A5000DF92EF92FF920F931F932F933F934F9339
:101A60005F936F937F938F939F93AF93BF93EF9306
:101A7000FF93CF93DF93CDB7DEB76C97DEBFCDBFBB
:101A80001092E9008091E80083FFEDC168E0CE018B
:101A900045960E942C0B82EF8093E8008D8987FF8A
:101AA00005C09091E80090FFFCCF03C09EEF90939B
:101AB000E800982F907609F0C6C09E892F89188D6E
:101AC00091110CC0803829F480911F038093F1009C
:101AD00002C01092F1001092F10048C1422F50E074
:101AE000512B913051F4811141C14130510509F020
:101AF0003DC180911F038D7F0BC0933061F4811134
:101B000035C14130510509F031C180911F03826018
:101B100080931F032BC1953041F48091E80080FF32
:101B2000FCCF20682093E30021C1963009F05FC00C
:101B3000EB8CFC8C1092E9001092740310927303EA
:101B4000123091F510927203109271030E94C80B2B
:101B500099E0BE016F5F7F4FDB01E92F1D92EA958F
:101B6000E9F799831A8391E09E8390EA98879AEF28
:101B700099872091730330917403275F3F4F3C8313
:101B80002B838D831092E9001092740310927303DB
:101B9000F0927203E092710349E050E080E00E940D
:101BA000050B0E94C80BE2C0F0927203E092710331
:101BB0000E94AE14DC011296ED90FC901397E11494
:101BC000F10409F4C0C0D701ED91FC910480F581C6
:101BD000E02DBE016B5E7F4FC7010995009719F09C
:101BE0000CF0C4C0C7C0F701E084F184E8CF97309F
:101BF00009F4C0C0983021F481E08093F100B6C0B0
:101C0000993009F0B3C0837009F0B4C0EFE3F1E09C
:101C100081E021E036E39081992361F08093E9002F
:101C20002093EB0091919093EC003093ED008F5F47
:101C3000873089F78EE78093EA001092EA008F8957
:101C40008093770393C08B8D9C8D1092E900109246
:101C50007403109273039093720380937103898DC0
:101C6000811156C08E899D89913A59F4813209F0CB
:101C700081C047E050E068E171E080E00E94050B20
:101C800075C0913209F076C0833289F4888D90E076
:101C9000982F88272F89822BA0E0B0E08093140131
:101CA00090931501A0931601B09317015FC0803285
:101CB00069F48091E80082FFFCCF67E088E191E061
:101CC0000E942C0B8BEF8093E80006C0823209F053
:101CD0004DC08F8980931F0180911D03882319F0C7
:101CE000EEEFFAE002C0E0E0F8E080911801909198
:101CF0001901A0911A01B0911B01803B9440A105EC
:101D0000B10509F07BC080911F0180FF93C076C0B0
:101D10000E94AE14DC0112960D911C9113970115CF
:101D2000110541F1D801ED91FC910190F081E02D78
:101D3000BE016B5E7F4FC8010995811117C0F80184
:101D400000851185ECCF113009F44EC0133091F4A9
:101D50008F89882309F445C0823081F440E862E12C
:101D600080E791E00E94F91B882321F08EEF809399
:101D7000E80079C081E28093EB0075C0813029F4DE
:101D800040E862E18DE591E0EDCF833099F70E9464
:101D9000AE14DC011296ED90FC9013978E010F5F4C
:101DA0001F4F6801E114F10479F0D701ED91FC9126
:101DB0000680F781E02DB801C7010995080F111DB4
:101DC000F701E084F184EECFD8011C92F601019076
:101DD0000020E9F73197BF016C197D0940E0C60189
:101DE000C1CF67E471E002C06BE471E06115710579
:101DF00009F2FB01449150E080E840CF0FB6F8941F
:101E0000A8958091600088618093600010926000C6
:101E10000FBEA895EE3F2AE0F20739F08091FE0A46
:101E20009091FF0A91838083A1CF1092FF0A1092B4
:101E3000FE0A9CCFEE3F8AE0F80731F08081918165
:101E40009093FF0A8093FE0A87E797E79183808348
:101E50009BE088E10FB6F894A895809360000FBED0
:101E60009093600083CF6C960FB6F894DEBF0FBEE0
:101E7000CDBFDF91CF91FF91EF91BF91AF919F9136
:101E80008F917F916F915F914F913F912F911F9112
:101E90000F91FF90EF90DF90CF900F900FBE0F90BB
:101EA0001F90189590E0FC013197EF30F105B0F5E7
:101EB000EA5AFF4F0C94D81F809180008F7703C09F
:101EC000809180008F7D80938000089580918000B4
:101ED000877FF9CF84B58F7702C084B58F7D84BDAD
:101EE0000895809190008F7707C0809190008F7D3A
:101EF00003C080919000877F809390000895809127
:101F0000C0008F7703C08091C0008F7D8093C00098
:101F100008958091C200877F8093C20008951F9327
:101F2000CF93DF93282F30E0F901EA51FF4F8491DE
:101F3000F901ED57FE4FD491F901E055FE4FC491E0
:101F4000CC23C9F0162F81110E94520FEC2FF0E024
:101F5000EE0FFF1FEE55FE4FA591B4918FB7F89489
:101F6000111105C09C91ED2FE095E92302C0EC9181
:101F7000ED2BEC938FBFDF91CF911F910895CF93FD
:101F8000DF9390E0FC01ED57FE4F2491FC01E055FA
:101F9000FE4F8491882361F190E0880F991FFC0126
:101FA000E852FF4FC591D491FC01EE55FE4FA5912B
:101FB000B491611109C09FB7F8948881209582235C
:101FC0008883EC912E230BC0623061F49FB7F894A4
:101FD0003881822F809583238883EC912E2B2C933C
:101FE0009FBF06C08FB7F894E8812E2B28838FBF40
:101FF000DF91CF9108953FB7F89480916D03909150
:102000006E03A0916F03B091700326B5A89B05C025
:102010002F3F19F00196A11DB11D3FBFBA2FA92F67
:10202000982F8827820F911DA11DB11DBC01CD01E4
:1020300042E0660F771F881F991F4A95D1F70895D0
:102040008F929F92AF92BF92CF92DF92EF92FF92C8
:102050006B017C010E94FB0F4B015C01C114D10498
:10206000E104F104F1F00E94FB0FDC01CB018819BF
:102070009909AA09BB09883E9340A105B10570F3EF
:1020800021E0C21AD108E108F10888EE880E83E049
:10209000981EA11CB11CC114D104E104F10419F76C
:1020A000DDCFFF90EF90DF90CF90BF90AF909F90EB
:1020B0008F9008958F929F92AF92BF92CF92DF92AE
:1020C000EF92FF920F931F93CF93DF935C016B010D
:1020D0007A0180911F01882309F45BC08091770306
:1020E000882309F456C080911E0380FF05C08091AB
:1020F000E00082608093E000E70110E00AEF83E0F7
:10210000882E9AE3992E2097D9F10E949D1481116F
:102110000AC0015009F43DC061E070E080E090E049
:102120000E942010F0CF282F30E0C217D3070CF404
:102130008C2F4FB7F8948092E9009091E80095FFBA
:102140001DC0282F30E0C21BD30BF601982F9150F1
:1021500020F081918093F100FACFC20ED31E11239B
:1021600019F09092E80009C08091E80085FD06C052
:102170009092E80011E0209709F010E04FBFC3CF24
:102180001111C3CF5D9884E6809375031E141F045C
:1021900044F081E090E0F5019383828380E090E059
:1021A00001C0C701DF91CF911F910F91FF90EF9078
:1021B000DF90CF90BF90AF909F908F9008952FB7F2
:1021C000F8946091690370916A0380916B03909118
:1021D0006C032FBF08959091C2039111FCCF61321F
:1021E00008F060E291E09093C2039093C1032FEF57
:1021F0002093C0031092BF03260F2093BE03909339
:10220000BD039091BD03880F892B8093BD038091FE
:10221000BC03813061F41092BC038091BD038093B4
:10222000BB008091BC0083FDF8CF85EC01C085EE3A
:102230008093BC008091C2038130E1F38091BF03A1
:10224000861710F46091BF03ACE9B3E025EC33E0EE
:10225000F9018E2F821B861718F48D918193F9CF87
:102260001092C4036093C303862F089520919B03AB
:1022700090919A03213208F04AC08091C2038111E3
:10228000FCCF32E03093C20331E03093C1033FEF23
:102290003093C0031092BF032093BE03AAE7B3E0BC
:1022A0004CE953E0FA013E2F341B321718F43D91EC
:1022B0003193F9CF1092BD032091BD03990F922B5A
:1022C0009093BD039091BC03913061F41092BC03D4
:1022D0009091BD039093BB009091BC0093FDF8CF0B
:1022E00095EC01C095EE9093BC009091C2039230A2
:1022F000E1F39091C0039F3F79F08091C003803259
:1023000041F08091C003803331F084E005C081E06A
:1023100003C082E001C083E01092790310929B0316
:10232000109278030895BF92CF92DF92EF92FF92BE
:102330000F931F93CF93DF938091960491E0909336
:10234000780380939A031092790310929B0362E2C0
:1023500085E394E00E94A3010E94361166E080911B
:1023600096040E94EB100E94DF107B018091C30352
:1023700090E02091C403821B91090697ACF48091F0
:10238000970490919804892B89F30E94DF106E19AD
:102390007F0980919704909198048617970730F7EA
:1023A00081E08093990433C085E394E00E94570153
:1023B000C82E85E394E00E945701B82E85E394E08F
:1023C0000E945701E82E85E394E00E945701D82E21
:1023D00085E394E00E945701F82E85E394E00E9483
:1023E00057011B2D00E00C2910938E0400938D04DF
:1023F000DD2D20E0C22FCE29D0939004C0938F040E
:10240000982F88278F299093920480939104DF91CD
:10241000CF911F910F91FF90EF90DF90CF90BF90E1
:102420000895BF92CF92DF92EF92FF920F931F9386
:10243000CF93DF938091960491E0909378038093FB
:102440009A031092790310929B0368E285E394E06B
:102450000E94A3010E94361166E0809196040E94BA
:10246000EB100E94DF107B018091C30390E020916C
:10247000C403821B91090697ACF480919704909154
:102480009804892B89F30E94DF106E197F098091CF
:102490009704909198048617970730F781E080930E
:1024A000990433C085E394E00E945701C82E85E368
:1024B00094E00E945701B82E85E394E00E945701F2
:1024C000E82E85E394E00E945701D82E85E394E03E
:1024D0000E945701F82E85E394E00E9457011B2DBE
:1024E00000E00C291093880400938704DD2D20E080
:1024F000C22FCE29D0938A04C0938904982F8827AD
:102500008F2990938C0480938B04DF91CF911F913E
:102510000F91FF90EF90DF90CF90BF900895BC0196
:10252000009791F0FC0101900020E9F73197AF018D
:10253000481B590BE091E503F091E6030280F3811B
:10254000E02D85EE93E0099480E090E00895CF932C
:10255000DF930E948F12EC0189ED91E00E948F12AF
:102560008C0F9D1FDF91CF910895CF93C82F81E0ED
:1025700080937803C0939A031092790310929B037F
:102580006FE085E394E00E94A3010E94361181115F
:102590000FC061E08C2F0E94EB109091C3038091DB
:1025A000C403981729F085E394E0CF910C94570168
:1025B0008FEF9FEFCF9108951F93CF93DF93162F47
:1025C000CAE7D4E0998521E02093780390939A0399
:1025D0001092790310929B03682F85E394E00E9488
:1025E000A301612F85E394E00E94A3010E943611AC
:1025F0008E83DF91CF911F910895CF93C82F81E0F3
:1026000080937803C0939A031092790310929B03EE
:102610006FE085E394E00E94A3010E9436118111CE
:102620000FC061E08C2F0E94EB109091C30380914A
:10263000C403981729F085E394E0CF910C945701D7
:102640008FEF9FEFCF9108950F931F93CF93DF9359
:10265000CDB7DEB729970FB6F894DEBF0FBECDBF5A
:102660000E94FB0F009155041091560420915704CD
:1026700030915804DC01CB01801B910BA20BB30BF2
:102680008C329140A105B10558F3F89480914B0428
:1026900090914C049A838983E0914F04F091500407
:1026A000DF0111968081898790914704E091590458
:1026B000F0915A0480915B04992309F42EC0908113
:1026C000982B98879081809589238F838F818C8325
:1026D00088E08B8358856F8149853B812C81898176
:1026E0009A81508347FD252F3A952083262F39F074
:1026F000441F00C000006083000000C0F2CF38E03B
:102700004D9160830000019761F7F0935A04E093C4
:10271000590449873B832C8338C09081982B988734
:102720009081809589238F838F818E8388E08D832C
:1027300058856F8149853D812E8189819A81508399
:1027400047FD252F00C000C0208300C000C000C08E
:1027500000C000C060830000262F3A9541F0441F5E
:10276000000000C000C000C000C000C0E8CF38E0DA
:102770004D9100C0608300C0019709F7F0935A049F
:10278000E093590449873D832E839A838983789403
:102790000E94FB0F60935504709356048093570476
:1027A0009093580429960FB6F894DEBF0FBECDBFA4
:1027B000DF91CF911F910F9108958F929F92AF92C9
:1027C000BF920F931F93CF93DF93CDB7DEB7A1973F
:1027D0000FB6F894DEBF0FBECDBF19A2423008F489
:1027E0004AE08E010F5D1F4F842E912CA12CB12C3D
:1027F000A50194010E94971FE62FB901CA0101505B
:102800001109EA3014F4E05D01C0E95CD801EC93F1
:10281000232B242B252B61F7C8010E948F12A19630
:102820000FB6F894DEBF0FBECDBFDF91CF911F91E1
:102830000F91BF90AF909F908F900895CF92DF92AD
:10284000EF92FF92CF93DF936B017C01E091E50360
:10285000F091E6030190F081E02D6DE285EE93E0CA
:102860000995EC0166277727CB016C197D098E0944
:102870009F094AE00E94DD138C0F9D1FDF91CF91CD
:10288000FF90EF90DF90CF900895CF93DF93BC013E
:10289000990F880B990B97FF03C00E941E1403C069
:1028A0004AE00E94DD13EC0189ED91E00E948F1255
:1028B0008C0F9D1FDF91CF91089520914504309199
:1028C00046048217930738F4209141043091420462
:1028D0002115310529F41092A60486EA94E00895A2
:1028E000820F931F0895FC0180917703811103C02B
:1028F0008FEF9FEF08959FB7F89482E08093E900EF
:102900002091F20030E01216130614F421E030E0BA
:102910002115310559F0289884E68093760380913B
:10292000F10080838091F200882319F09FBFC901D4
:1029300008958BE68093E800F9CF2FB7F89483E0F1
:102940008093E9009091E800892F807295FF04C080
:102950009091F20080E4891B2FBF089580919E041E
:1029600081110DC082E080939A0484E080939B04DF
:1029700010929D0410929C0481E080939E048AE949
:1029800094E0089580914104909142040E94732044
:1029900080914F0490915004009711F00E94732091
:1029A00080914D0487FD03C060E00C94BF0F089533
:1029B000CF93DF93CDB7DEB7AE970FB6F894DEBFF7
:1029C0000FBECDBF789484B5826084BD84B581602C
:1029D00084BD85B5826085BD85B5816085BD8091EA
:1029E0006E00816080936E00109281008091810062
:1029F000826080938100809181008160809381005A
:102A0000809180008160809380008091910082603D
:102A100080939100809191008160809391008091DA
:102A200090008160809390008091C10084608093C9
:102A3000C1008091C10082608093C1008091C1007B
:102A400081608093C1008091C30081608093C30046
:102A50008091C00082608093C0008091C20081603C
:102A60008093C20080917A00846080937A00809184
:102A70007A00826080937A0080917A0081608093EE
:102A80007A0080917A00806880937A0010927703B0
:102A900010921F0310921E038091D70081608093D3
:102AA000D70080EA8093D80089B5806189BD89B557
:102AB000826089BD09B400FEFDCF61E070E080E076
:102AC00090E00E9420108091D8008F7C80618093DC
:102AD000D8008091E000807F8093E0008091E10049
:102AE0008E7E8093E1008DE08093E200559A209ADB
:102AF000EEEFFFE7859194918B3F9C4D19F481E0B7
:102B000080931D0347983F9A81E00E949A09109292
:102B1000C4031092C3031092790310929B03109286
:102B2000C20381E08093C1031092BC0361E082E0A4
:102B30000E948F0F61E083E00E948F0F8091B900A7
:102B40008E7F8093B9008091B9008D7F8093B9000A
:102B500088E48093B80085E48093BC008BE60E94F3
:102B6000B5128936910589F08AE60E94B512893638
:102B7000910571F08BE991E00E94A71268EC70E07A
:102B800080E090E00E942010F5CF81E090E002C04C
:102B900080E090E01092950410929404019709F45B
:102BA00056C08AE68093960460E880E10E94161D74
:102BB00060E881E10E94161D64E082E10E94161D1A
:102BC00068E581E10E94161D68EE73E080E090E008
:102BD0000E94201004E610E0C12CD12C76010E9446
:102BE00011120E94931180918F0490919004092EEC
:102BF000000CAA0BBB0BC80ED91EEA1EFB1E61E01F
:102C000070E080E090E00E9420100150110939F737
:102C1000C701B60124E630E040E050E00E94B91F51
:102C200020932003309321034093220350932303E6
:102C30008EE10E94FD12CD9761F08CE10E94FD12A1
:102C4000CD9751F08EE892E00E94A712FFCF8BE65D
:102C5000A9CF81E090E002C080E090E01092820471
:102C600010928104019709F4C2C58CE1809383041A
:102C700060E780E20E94DC1260E081E20E94DC12E8
:102C800060E082E20E94DC126CE083E20E94DC12CF
:102C900080E00E949A098FEF9FEF9093F203809358
:102CA000F10380914D0487FD08C061E00E94BF0FD1
:102CB00060E080914D040E948F0F81E08093480472
:102CC00080914F0490915004892B11F00E9424139D
:102CD0001E0113E1210E311C8E01075E1F4F1A8F5A
:102CE000098F0E94DF1020915C0330915D03AB01DE
:102CF000421B530B4A30510508F4F3C121E04C301C
:102D0000510508F420E02093670370935D036093FE
:102D10005C030E94A1094091630350916403609198
:102D20006503709166038091340390913503A091FF
:102D30003603B09137036C017D01C41AD50AE60A47
:102D4000F70ACF8ED8A2E9A2FAA2C0923403D09299
:102D50003503E0923603F092370380915F03909140
:102D60006003A0916103B091620300913003109160
:102D70003103209132033091330368017901C81A7D
:102D8000D90AEA0AFB0ACBA2DCA2EDA2FEA2C092FB
:102D90003003D0923103E0923203F092330340903B
:102DA0002C0350902D0360902E0370902F03441A33
:102DB000550A660A770A40922C0350922D036092BE
:102DC0002E0370922F0340912803509129036091A4
:102DD0002A0370912B037A018B01E81AF90A0A0B76
:102DE0001B0BEFA2F8A609A71AA7E0922803F092FE
:102DF000290300932A0310932B0380918704909159
:102E00008804883E03E0900744F480918B049091FD
:102E10008C04181619065CF004C08C349D410CF02B
:102E200050C080918B0490918C0497FF4AC01092FF
:102E30002403109225031092260310922703109268
:102E40003403109235031092360310923703109218
:102E5000300310923103109232031092330380E05A
:102E600090E00E94EA0880E090E00E94C308809110
:102E7000400390914103A0914203B0914303019616
:102E8000A11DB11D0397A105B105C0F480918B046C
:102E900090918C04181619062CF480E898E3A1E0B0
:102EA000B0E004C080E897ECAEEFBFEF80933C0346
:102EB00090933D03A0933E03B0933F0310925E03B3
:102EC00010C120913C0330913D0340913E0350914D
:102ED0003F03A7EEB3E00E946E1E28EE33E040E011
:102EE00050E00E94B91F2B8F3C8F4D8F5E8F209337
:102EF0003C0330933D0340933E0350933F03809047
:102F0000400390904103A0904203B090430380910E
:102F1000580390915903A0915A03B0915B03CF8C51
:102F2000D8A0E9A0FAA00BA11CA12DA13EA1C00E22
:102F3000D11EE21EF31E8C0D9D1DAE1DBF1D809384
:102F4000580390935903A0935A03B0935B03A2E8EC
:102F5000B0E0A50194010E946E1E2B8D3C8D4D8D1D
:102F60005E8D260F371F481F591FA9E0B0E00E9451
:102F70006E1E6B8F7C8F8D8F9E8F6093540370932A
:102F800055038093560390935703A4EFB1E0A50136
:102F900094010E946E1E4B015C016093500370937C
:102FA00051038093520390935303AAE0B0E0A7012A
:102FB00096010E946E1E6B017C0160934C0370931E
:102FC0004D0380934E0390934F0310924803109249
:102FD000490310924A0310924B032FA138A549A52B
:102FE0005AA5240D351D461D571DA4ECB9E00E94BD
:102FF0006E1E609344037093450380934603909341
:1030000047030B8D1C8D2D8D3E8D800E911EA21EB3
:10301000B31EC80CD91CEA1CFB1C6C0D7D1D8E1D3B
:103020009F1D20ED30E240E050E00E94B91F8091EA
:10303000240390912503A0912603B0912703820FCA
:10304000931FA41FB51F8D3211E09107A105B10593
:1030500024F08CE291E0A0E0B0E080932403909310
:103060002503A0932603B093270380912403909116
:103070002503A0912603B0912703843D9E4FAF4FB7
:10308000BF4F64F484ED9EEFAFEFBFEF8093240356
:1030900090932503A0932603B09327030F8D18A1C7
:1030A0004BA15CA1041B150BE0902403F0902503B9
:1030B000C80117FD019695958795D701A81BB90BF7
:1030C000CD010E94EA0817FF02C00F5F1F4FC80121
:1030D000959587958E0D9F1D0E94C30881E0809372
:1030E0005E030E94DF106B017C018091640490916B
:1030F000650497018601081B190B21093109053167
:1031000011052105310508F48EC080915C04909171
:103110005D04A0915E04B0915F04A7019601281B95
:10312000390B4A0B5B0B253631054105510508F477
:1031300076C08091830491E09093780380939A0302
:103140001092790310929B0368EA85E394E00E9451
:10315000A3010E94361166E0809183040E94EB1067
:103160000E94DF108B018091C30390E02091C40383
:10317000821B91090697ACF4809184049091850498
:10318000892B89F30E94DF10601B710B80918404EE
:10319000909185048617970730F781E08093860425
:1031A00036C085E394E00E945701A82E85E394E0A1
:1031B0000E945701982E85E394E00E945701082F42
:1031C00085E394E00E945701B82E85E394E00E94C5
:1031D0005701182F85E394E00E9457019CA61BA677
:1031E0002BA53CA52A2930937B0420937A04BEA604
:1031F0001DA62DA53EA5202B30937D0420937C0495
:10320000982F8827812B90937F0480937E04C0920F
:103210005C04D0925D04E0925E04F0925F04D09270
:103220006504C092640416E085EE93E00E94850B6D
:10323000181619060CF06AC285EE93E00E94220C63
:10324000082F682F81E494E00E94400C0A3061F757
:1032500083EC91E00E948F12E091E503F091E60388
:10326000409145045091460460914104709142049C
:103270000280F381E02D85EE93E0099589ED91E0E0
:103280000E948F1280E090E00E945D14DC018C911E
:10329000833539F48CED91E00E94A7120E945E0AFA
:1032A0002CC280E090E00E945D14FC0180818C348F
:1032B00009F587EE91E00E94A7128CE99FEF0E942A
:1032C000EA088CE99FEF0E94C3086CE271E080E09D
:1032D00090E00E94201080E090E00E94EA0880E0E8
:1032E00090E00E94C30860ED77E080E090E00E94EB
:1032F000201003C280E090E00E945D14DC018C91FC
:10330000833409F0E5C0FE0131966F017F016BED5A
:1033100071E0C7010E949B0C36E0E30EF11CE21441
:10332000F304A9F742E0A42EB12CE12CF12C8091FA
:10333000450490914604A816B90638F4C5010E94C8
:103340005D14DC016C916A3039F4B2E0EB16F104E3
:10335000A4F58BE492E02AC0603221F4EFEFEE1A7C
:10336000FE0A19C0862F062E000C990BC0970A97EB
:1033700078F41E9DC0011F9D900D11244424439498
:10338000512C4C0E5D1E840D951D0E94400C03C0F7
:1033900082EF91E00BC003E0E016F1041CF08DE138
:1033A00092E004C02FEFA21AB20AC1CF0E94A71266
:1033B0008D859E850E94732093C17101D6018D91E8
:1033C0009C91009719F00E94371D03C060E070E0E7
:1033D000CB01F701619371937F01F6E0CF0ED11C11
:1033E000498C5A8CE414F50449F74F89588D8D881F
:1033F0009E886B887C88E42EB82CA62C7724992490
:103400005527A0E0B0E01C8E1B8E60E070E020919C
:10341000490430914A0480914F04909150046217FE
:10342000730708F04FC020914E042223C9F030E00A
:10343000629E6001639ED00C729ED00C1124FD2C04
:10344000829E6001839ED00C929ED00C11240D2D83
:10345000429F6001439FD00C529FD00C112403C0A7
:10346000DE2C0B2DFA2C209154043091510423139F
:1034700005C02B8D3C8D820F931F06C08A0F9B1FAA
:10348000FC01E20FF11D1082209151042C01420E2B
:10349000511CF201F082209152042C01420E511C69
:1034A000F201008320915304820F911DFC01D08210
:1034B0006F5F7F4F2B8D3C8D2D5F3F4F3C8F2B8F50
:1034C0001496A5CF892B09F473CF0E94241370CFD3
:1034D00080E090E00E945D14DC018C91863509F05B
:1034E00008C16BED71E0CE0101960E949B0C6BED63
:1034F00071E0CE0107960E949B0C22E0E22EF12C97
:10350000C12CD12C8091450490914604E816F9060F
:1035100038F4C7010E945D14FC0160816A3019F41F
:10352000CD28C9F5A7C0603239F4CA94CD28F9F086
:10353000CC24C394D12C2BC0862F062E000C990BC3
:10354000C0970A97B8F06D3209F04EC11C9DF0018A
:103550001D9DF00D112444244394512C4C0E5D1EEE
:10356000E40DF51D84819581892B21F03DC18DE10C
:1035700092E082C01C9DC0011D9D900D112421E090
:1035800030E02C0F3D1F820F931F0E94400C0FEF65
:10359000E01AF00AB7CF89819A81009719F00E944A
:1035A000371D03C060E070E0CB017B018F819885FF
:1035B000009729F00E94371D4B015C0103C0812C4C
:1035C000912C5401B701FF0C880B990B0E94751DBB
:1035D0002B013C010E946209C82EB401990C880B92
:1035E000990B0E94751D20E030E048EA52E40E94E9
:1035F000B01D20E030E040E451E40E94B01D20E026
:1036000030E040E85EE30E94B01D20E030E04AE791
:1036100054E40E94BF1E20E030E040EE50E40E94DF
:10362000B01D20E030E040EA50E40E94BF1E0E943E
:10363000311FA62E660FBB08DD24C1940CF4D09474
:10364000CA18DB08C301B2010E946209E82E880F84
:10365000FF08EA18FB0881E08093680346010D2CFF
:10366000000CAA08BB08D7FE0AC0C501B4010E941D
:103670001E140AC08BE492E00E94A71231C04AE0F7
:10368000C501B4010E94DD13E091E503F091E6036A
:103690000190F081E02D60E285EE93E00995C7018D
:1036A0000E9445148092630390926403A092650384
:1036B000B0926603C701FF0CAA0BBB0B80935F039C
:1036C00090936003A0936103B09362030E94DF10A4
:1036D0006093600470936104809362049093630428
:1036E0008F8198850E94732089819A810E9473201E
:1036F00004C088E792E00E94A71240E050E06BED22
:1037000071E081E494E00E94700C8ECD0E94DF1085
:10371000009160041091610420916204309163046F
:10372000DC01CB01801B910BA20BB30B893E9340B4
:10373000A105B10530F180916803882311F1109241
:1037400068031092340310923503109236031092DE
:10375000370310923003109231031092320310920B
:103760003303109263031092640310926503109266
:10377000660310925F03109260031092610310922F
:103780006203809167030E949A092091400330915F
:1037900041034091420350914303A2E8B0E00E94EC
:1037A0006E1E00913C0310913D0320913E03309129
:1037B0003F03DC01CB01801B910BA20BB30B18164E
:1037C00019061A061B0624F4479A3F9A5D9A03C00D
:1037D00047983F9A5D98559A80E090E0892B09F4CC
:1037E00080CA0E94000078CA82EF91E045CF8EE146
:1037F0003DCACF92DF92EF92FF920F931F93CF9328
:10380000DF931F92CDB7DEB7182F062FE42E862F39
:10381000880F8E5F99830E94D70A83E00E94D70A9F
:10382000F12EC12E9981D92E8C2D8F19801798F4E5
:10383000F601E7FE02C0849101C080810E94D70A90
:10384000182F80E00E94D70A8123FFEFCF1ADF0AEA
:103850008111EACF01C081E00F90DF91CF911F91DC
:103860000F91FF90EF90DF90CF900895CF9310923B
:10387000E8031092E70388EE93E0A0E0B0E08093C5
:10388000E9039093EA03A093EB03B093EC0329E4DC
:1038900031E03093E6032093E5032FEF3FEF3093C1
:1038A000F2032093F10310923804109237048093AE
:1038B000390490933A04A0933B04B0933C048BE505
:1038C00091E0909336048093350481E090E09093EA
:1038D0009504809394041092980410929704109287
:1038E000990490938204809381041092850410922D
:1038F0008404109286041092700410927304109243
:1039000076048EE080937704C1E0C0937804C0937E
:10391000790483E791E090936F0480936E04109292
:10392000680410926B048DE691E090936704809395
:1039300066040E94DF1070936504609364040E9423
:10394000DF1060936004709361048093620490932D
:1039500063040E94DF1060935C0470935D048093A5
:103960005E0490935F041092480410924E041092EB
:10397000550410925604109257041092580483E094
:103980008093540410925104C093520482E08093B7
:103990005304C093470480E290E090934C048093DA
:1039A0004B040E94DE1F9093500480934F040097B5
:1039B00061F020E2FC0111922A95E9F788E090E09D
:1039C00090934A048093490408C010924C041092CA
:1039D0004B0410924A041092490481E080934D04F4
:1039E00080914804882341F061E081E00E94BF0F8C
:1039F00060E081E00E948F0FE1EBF1E0E491F0E004
:103A0000EE0FFF1FEE55FE4F8591949190935A044F
:103A100080935904E4E8F1E0E491E0935B046BEDFA
:103A200071E081E494E0CF910C949B0C1F93CF93B1
:103A3000DF93162FC7E8D4E09F8521E02093780319
:103A400090939A031092790310929B03682F85E359
:103A500094E00E94A301612F85E394E00E94A301FA
:103A60000E9436118C87DF91CF911F9108951F938B
:103A7000FC0199278827BC01E89411911032E9F3E1
:103A8000193010F01E30C8F31B3251F01D3249F4CA
:103A9000689406C00E945E1D610F711D811D911DFD
:103AA000119110531A30B0F33EF4909580957095B3
:103AB00061957F4F8F4F9F4F1F910895592F482F2A
:103AC000372F262F660F771F881F991F660F771FC6
:103AD000881F991F620F731F841F951F660F771F22
:103AE000881F991F0895E89409C097FB3EF49095AC
:103AF0008095709561957F4F8F4F9F4F9923A9F0C7
:103B0000F92F96E9BB279395F69587957795679555
:103B1000B795F111F8CFFAF4BB0F11F460FF1BC099
:103B20006F5F7F4F8F4F9F4F16C0882311F096E92C
:103B300011C0772321F09EE8872F762F05C06623DA
:103B400071F096E8862F70E060E02AF09A95660F93
:103B5000771F881FDAF7880F9695879597F908954C
:103B60000E94C31D0C94341E0E94261E38F00E9431
:103B70002D1E20F0952311F00C941D1E0C94231E75
:103B800011240C94681E0E94451E70F3959FC1F38A
:103B9000950F50E0551F629FF001729FBB27F00DFB
:103BA000B11D639FAA27F00DB11DAA1F649F662750
:103BB000B00DA11D661F829F2227B00DA11D621F9F
:103BC000739FB00DA11D621F839FA00D611D221F59
:103BD000749F3327A00D611D231F849F600D211D3D
:103BE000822F762F6A2F11249F5750409AF0F1F0C0
:103BF00088234AF0EE0FFF1FBB1F661F771F881F29
:103C000091505040A9F79E3F510580F00C941D1E25
:103C10000C94681E5F3FE4F3983ED4F38695779545
:103C20006795B795F795E7959F5FC1F7FE2B880FCE
:103C3000911D9695879597F9089597F99F6780E864
:103C400070E060E008959FEF80EC089500240A94EE
:103C50001616170618060906089500240A94121667
:103C60001306140605060895092E0394000C11F49A
:103C7000882352F0BB0F40F4BF2B11F460FF04C047
:103C80006F5F7F4F8F4F9F4F089557FD9058440FA0
:103C9000551F59F05F3F71F04795880F97FB991FAB
:103CA00061F09F3F79F08795089512161306140668
:103CB000551FF2CF4695F1DF08C0161617061806F5
:103CC000991FF1CF86957105610508940895E894D0
:103CD000BB2766277727CB0197F908950E94B01E6E
:103CE000A59F900DB49F900DA49F800D911D112450
:103CF00008952F923F924F925F926F927F928F9290
:103D00009F92AF92BF92CF92DF92EF92FF920F936A
:103D10001F93CF93DF93CDB7DEB7CA1BDB0B0FB674
:103D2000F894DEBF0FBECDBF09942A883988488831
:103D30005F846E847D848C849B84AA84B984C884C7
:103D4000DF80EE80FD800C811B81AA81B981CE0FBE
:103D5000D11D0FB6F894DEBF0FBECDBFED010895A3
:103D6000A29FB001B39FC001A39F700D811D1124BC
:103D7000911DB29F700D811D1124911D08950E9407
:103D8000D31E0C94341E0E942D1E58F00E94261E35
:103D900040F029F45F3F29F00C941D1E51110C9442
:103DA000681E0C94231E0E94451E68F39923B1F3EC
:103DB000552391F3951B550BBB27AA276217730751
:103DC000840738F09F5F5F4F220F331F441FAA1FE5
:103DD000A9F335D00E2E3AF0E0E832D091505040A1
:103DE000E695001CCAF72BD0FE2F29D0660F771F4F
:103DF000881FBB1F261737074807AB07B0E809F035
:103E0000BB0B802DBF01FF2793585F4F3AF09E3FB9
:103E1000510578F00C941D1E0C94681E5F3FE4F36E
:103E2000983ED4F3869577956795B795F7959F5FFC
:103E3000C9F7880F911D9695879597F90895E1E048
:103E4000660F771F881FBB1F621773078407BA07A7
:103E500020F0621B730B840BBA0BEE1F88F7E09502
:103E600008950E94381F6894B1110C94681E08953B
:103E70000E944D1E88F09F5798F0B92F9927B7518F
:103E8000B0F0E1F0660F771F881F991F1AF0BA95FE
:103E9000C9F714C0B13091F00E94671EB1E00895D7
:103EA0000C94671E672F782F8827B85F39F0B93FC9
:103EB000CCF3869577956795B395D9F73EF49095B1
:103EC0008095709561957F4F8F4F9F4F0895DB01CF
:103ED0008F939F930E946E1EBF91AF91A29F800D02
:103EE000911DA39F900DB29F900D11240895991BD1
:103EF00079E004C0991F961708F0961B881F7A95E1
:103F0000C9F780950895AA1BBB1B51E107C0AA1FE2
:103F1000BB1FA617B70710F0A61BB70B881F991F6A
:103F20005A95A9F780959095BC01CD010895A1E21D
:103F30001A2EAA1BBB1BFD010DC0AA1FBB1FEE1F23
:103F4000FF1FA217B307E407F50720F0A21BB30B6E
:103F5000E40BF50B661F771F881F991F1A9469F7EA
:103F600060957095809590959B01AC01BD01CF0146
:103F70000895052E97FB1EF400940E94D01F57FD54
:103F800007D00E94971F07FC03D04EF40C94D01F5B
:103F900050954095309521953F4F4F4F5F4F089575
:103FA00090958095709561957F4F8F4F9F4F0895A5
:103FB000EE0FFF1F0590F491E02D0994CF93DF934E
:103FC0008230910510F482E090E0E091A904F09134
:103FD000AA0420E030E0C0E0D0E0309711F1408149
:103FE000518148175907C0F04817590761F4828179
:103FF0009381209719F09B838A832BC09093AA0406
:104000008093A90426C02115310519F042175307E2
:1040100018F49A01BE01DF01EF010280F381E02D67
:10402000DCCF2115310509F1281B390B243031056E
:1040300090F412968D919C9113976115710521F062
:10404000FB019383828304C09093AA048093A90404
:10405000FD01329644C0FD01E20FF31F819391935D
:10406000225031092D933C933AC02091A7043091FE
:10407000A804232B41F42091220130912301309395
:10408000A8042093A704209120013091210121153B
:10409000310541F42DB73EB74091240150912501DF
:1040A000241B350BE091A704F091A804E217F30755
:1040B000A0F42E1B3F0B2817390778F0AC014E5F98
:1040C0005F4F2417350748F04E0F5F1F5093A80429
:1040D0004093A7048193919302C0E0E0F0E0CF0108
:1040E000DF91CF9108950F931F93CF93DF930097A4
:1040F00009F48CC0FC013297138212820091A9044A
:104100001091AA040115110581F420813181820FDB
:10411000931F2091A7043091A8042817390779F537
:10412000F093A804E093A70471C0D80140E050E0E8
:10413000AE17BF0750F412962D913C911397AD0125
:104140002115310509F1D901F3CF9D01DA0133833E
:10415000228360817181860F971F8217930769F40C
:10416000EC0128813981260F371F2E5F3F4F3183A5
:1041700020838A819B8193838283452B29F4F0934A
:10418000AA04E093A90442C01396FC93EE931297FD
:10419000ED01499159919E01240F351FE217F30754
:1041A00071F480819181840F951F029611969C93E2
:1041B0008E938281938113969C938E931297E0E065
:1041C000F0E0D80112968D919C911397009719F009
:1041D000F8018C01F6CF8D919C9198012E5F3F4F95
:1041E000820F931F2091A7043091A8042817390744
:1041F00069F4309729F41092AA041092A90402C01D
:10420000138212821093A8040093A704DF91CF9128
:104210001F910F910895A0E0B0E0E1E1F1E20C946C
:104220007D1EEC01009721F4CB010E94DE1FB8C077
:10423000FC01E60FF71F9C0122503109E217F3073A
:1042400008F4ACC0D9010D911C91119706171707FE
:10425000B0F00530110508F49FC0C8010497861717
:10426000970708F499C002501109061B170B019318
:1042700011936D937C93CF010E9473208DC05B01DD
:10428000A01AB10A4C01800E911EA091A904B09110
:10429000AA0440E050E0E12CF12C109709F44AC048
:1042A000A815B905D1F56D907C901197630182E056
:1042B000C80ED11CCA14DB0480F1A3014A195B09A2
:1042C0006A0182E0C80ED11C1296BC901297139618
:1042D000AC91B5E0CB16D10440F0B282A3835183F8
:1042E0004083D9016D937C930AC00E5F1F4FC301B9
:1042F000800F911FF90191838083EB2DFA2FE11438
:10430000F10431F0D7011396FC93EE93129744C059
:10431000F093AA04E093A9043FC08D919C9111975A
:104320004817590708F4AC017D0112960D90BC9115
:10433000A02DB3CF8091A7049091A804881599056A
:10434000E1F446175707C8F48091200190912101AC
:10435000009741F48DB79EB74091240150912501FB
:10436000841B950BE817F907C8F4F093A804E093B1
:10437000A704F901718360830FC0CB010E94DE1F87
:104380007C01009759F0A801BE010E94DA21CE01FC
:104390000E947320C70104C0CE0102C080E090E0FB
:1043A000CDB7DEB7EEE00C94991E81E090E0F89472
:1043B0000C94EA21FB01DC0102C001900D924150F6
:1043C0005040D8F70895FB01DC0101900D920020C8
:1043D000E1F7089510E0C9EED0E004C0FE010E94AC
:0E43E000D81F2196CA3ED107C9F7F894FFCF27
:1043EE000F00F401D0070400041401140114011489
:1043FE0001140101FFFFFFFF00E1000000000000BB
:10440E000000AB0480009C01B501CF01EA01070258
:10441E002602470269028E02B502DE020A0300C1BD
:10442E00808100000000000000640B5A10FA0B7A25
:10443E000B850B220CFE0B00000000A3017301D3B1
:10444E000147016B0157014801000000000A0400FA
:10445E00000000C703213E67726D733E6131363E28
:10446E006131363E673200443A20537461727420D3
:10447E0062616C616E63696E672100453A20466128
:10448E00696C656420746F20646574656374206163
:10449E006E6420696E697469616C697A6520494D34
:1044AE00552100443A20636F6D6D616E6420726514
:1044BE006365697665643A20000D0A00443A2073FC
:1044CE0074616E64557000443A206C6179446F7764
:1044DE006E00453A204572726F7220696E20636FCE
:1044EE006D6D616E642070617273696E672E2053FC
:1044FE0069676E20756E6B6E6F776E2E00453A2073
:10450E004572726F7220696E20636F6D6D616E649D
:10451E002070617273696E672E20546F6F206D610B
:10452E006E79207370616365732E00453A20457273
:10453E00726F7220696E20636F6D6D616E64207094
:10454E00617273696E672E20546F6F2066657720D7
:10455E0076616C7565732E00453A20436F6D6D6103
:10456E006E64206E6F74206B6E6F776E2E00453A00
:10457E00204661696C656420746F206465746563A0
:10458E007420616E6420696E697469616C697A6504
:10459E00206D61676E65746F6D65746572210000C4
:00000001FF
