:100000000C9430010C94AA050C9483050C945C05A7
:100010000C9435050C9458010C9458010C940E0561
:100020000C9458010C9499090C94800D0C94F20DC9
:100030000C9458010C9458010C9458010C945801DC
:100040000C9458010C9458010C9458010C945801CC
:100050000C9458010C9458010C9458010C94C4044D
:100060000C9458010C9458010C9458010C945801AC
:100070000C9458010C9458010C9458010C9458019C
:100080000C9458010C9458010C9458010C9458018C
:100090000C94D1050C9458010C9458010C945801FF
:1000A0000C9458010C94FA080C9458013A103D1025
:1000B0002C10301036105E105E105E10411045108E
:1000C00049104F1053105E1059100000000024001A
:1000D00027002A002D003000000000002300260029
:1000E00029002C002F00214F3620543234306C333D
:1000F0003261622D623E636C387220627220622D22
:1001000062622D6120612D7220677220672D34207C
:100110006734612D7220677220672D67672D662016
:10012000657220652D7220643420652D346772203D
:100130006D73643864386D6C20642D3464346C33B2
:10014000326566672D676C3872206D736438643869
:100150006D6C20642D3464343C6263642D642065CE
:100160002D6566672D2067612D61622D2061342029
:10017000677200080B00020202010009040000017E
:1001800002020000052400100105240101010424DD
:10019000020605240600010705810310004009043A
:1001A0000100020A000000070502024000000705E6
:1001B00083024000000403090412010002EF02015F
:1001C00040FB1F0023000101020301506F6C6F6CA4
:1001D0007520436F72706F726174696F6E00506F3B
:1001E0006C6F6C7520412D5374617220333255341D
:1001F0000000000000250028002B002E0031000424
:1002000004040404030405020202020403020202BD
:100210000206060606060604040202020404040896
:1002200002011040804010204080408008020401FC
:10023000804020100201108010204040200000006B
:100240000200090F0000030401000C000000000080
:100250000000000000000000000000005F196213B1
:1002600011241FBECFEFDAE0DEBFCDBF24E0A6EA47
:10027000B2E001C01D92AE35B207E1F712E0A0E096
:10028000B1E0EAE4FDE302C005900D92A63AB107A1
:10029000D9F711E0CFE2D1E004C02197FE010E941E
:1002A000641CCE32D107C9F70E9468130C94981EC3
:1002B0000C940000089585ED8093BC008091BC00F3
:1002C00084FDFCCF10929B0308954091DD02262F00
:1002D00030E0240F311D21323105DCF420919B03E5
:1002E0002430C9F4FC0180E090E0861758F4309186
:1002F000DD022191DC01A554BD4FA30FB11D2C934C
:100300000196F3CF8091DD02680F6093DD0280E0FB
:10031000089581E0089582E008950895E0919D0395
:1003200080919C03E81730F4F0E0E256FC4F8081A6
:1003300090E008958FEF9FEF089590919D03809135
:100340009C03981750F4E92FF0E0E256FC4F20810F
:1003500030E09F5F90939D0302C02FEF3FEFC901F4
:10036000089580919C0390E020919D03821B910948
:100370000895CF92DF92EF92FF920F931F93CF9346
:10038000DF937C01262F972F8A01809151038823C8
:1003900091F0C62FD72F6E01C40ED51ECC15DD05EA
:1003A00071F06991D701ED91FC910190F081E02D00
:1003B000C7010995F3CF642F822F0E946501C80100
:1003C000DF91CF911F910F91FF90EF90DF90CF9031
:1003D0000895CF93DF931F92CDB7DEB76983209145
:1003E00051032223D1F020917403203240F021E008
:1003F00030E0FC013383228380E090E015C08091DF
:100400005203E82FF0E0ED5AFC4F998190838F5F03
:10041000809352038093740305C061E0CE0101967E
:100420000E94650181E090E00F90DF91CF910895E7
:10043000089580E090E0089580911D03E0911E03EF
:10044000F0911F03882311F0849101C080819FEBFC
:10045000980F9A3110F4805E0895803269F42091EB
:100460001E0330911F03A9014F5F5F4F50931F037D
:1004700040931E03232B01F708951F93CF93DF931F
:100480000E941C02C0E0D0E01AE090ED980F9A3074
:10049000B8F41C9F90011D9F300D1124E901C80F75
:1004A000D11D87FDDA95E09780911E0390911F037F
:1004B000019690931F0380931E030E941C02E5CFB8
:1004C000CE01DF91CF911F9108952F923F924F92CD
:1004D0005F926F927F928F929F92AF92BF92CF92D4
:1004E000DF92EF92FF920F931F93CF93DF93CDB7DD
:1004F000DEB727970FB6F894DEBF0FBECDBF9F8340
:100500008E831B014D838091B70281111BC081E056
:100510008093B702109272001092C00094E0909302
:10052000C10099E09093C2008093C30083E0809360
:10053000BF0088EE8093D1001092BF001092D200CD
:10054000579A7894109213012E813F8137FF05C08E
:100550003F773F832E830AE001C001E088E2089FD5
:10056000802D112490E04E815F814817590708F4CF
:10057000C2C0013039F44131574220F0E0E1F7E2E6
:10058000FF83EE83802E912CA12CB12C8E819F8134
:10059000969587959C0140E050E029833A834B83F0
:1005A0005C834E815F812A01612C712CA50194012D
:1005B00060E072E18AE790E00E94151C29813A818F
:1005C0004B815C81620F731F841F951FA3019201F1
:1005D0000E94451C69017A01EE24FF2410E01F5F90
:1005E000C11434E0D306E104F10408F120E032E163
:1005F0004AE750E0012E04C0559547953795279559
:100600000A94D2F7C501B4010E94151C29813A81D0
:100610004B815C81620F731F841F951FA3019201A0
:100620000E94451C69017A01EE24FF24D8CF0A30CC
:1006300049F48E819F8105966AE070E00E94311C2A
:100640007F836E834E815F81483E83E0580759F077
:100650009101DA010E945E1B28EE33E040E050E099
:100660000E94451C1901109272008091C100807F88
:10067000182B1093C100BB27AF2D9E2D8D2D80937D
:10068000BF00C092D1002D81203108F02FE080E121
:1006900090E0821B910904C0F694E794D794C79424
:1006A0008A95D2F78D2D99278093BF00C092D200F2
:1006B0003092B9022092B80289B38FEF89BB84E0EF
:1006C0008093720027960FB6F894DEBF0FBECDBFA1
:1006D000DF91CF911F910F91FF90EF90DF90CF901E
:1006E000BF90AF909F908F907F906F905F904F9052
:1006F0003F902F9008959F838E8344CF2E98269A03
:100700002D98259A2A98229A2998219A80EA8093EE
:10071000800081E18093810080E991E090938700DF
:1007200080938600109289001092880010928B00AE
:1007300010928A00089524982C9A6A98729A6E985A
:10074000769A8098889A81E08093680090E19093EF
:100750006B008BBB80EE93E09093120180931101AC
:10076000EAE6F0E080818F7C80618083EE9A8CB134
:1007700082FB882780F98093B40293B12091B40260
:1007800094FB882780F982278093B3021092B202EB
:100790001092B1021092B0028FB181708093AF02BB
:1007A0009CB12091AF0296FB882780F98227809325
:1007B000AE021092AD021092AC021092AB020895FC
:1007C0004FB141708CB186FB882780F98427209136
:1007D000AE025091AF026091AC027091AD02942FC5
:1007E0009227292F30E0982F9527291B3109260FB2
:1007F000371F3093AD022093AC022091AE0290914E
:10080000AF02821729F0491719F091E09093AB02DB
:100810008093AE024093AF0208950F931F93CF933E
:10082000DF93EC018885811151C081E088878A853A
:10083000298530E0F901E25EFD4F882309F18491BA
:10084000F901E150FE4F2491222309F43BC030E02E
:10085000220F331FF901E653FF4F45915491F901DF
:10086000EF50FE4FA591B4912FB7F894FA01308163
:10087000982F909593239083EC918E2B8C9321C08D
:100880008491F901E150FE4F24912223D9F030E008
:10089000220F331FF901E653FF4F45915491F9019F
:1008A000EF50FE4FA591B4912FB7F894FA019081C3
:1008B000382F3095892F832380838C91E32FE82371
:1008C000EC932FBF8FE090E00197F1F7298530E09E
:1008D000F901E35CFD4F8491F901E25EFD4F049163
:1008E000F901E150FE4F1491112391F081110E9402
:1008F0002210E12FF0E0EE0FFF1FE852FF4FA5910D
:10090000B491EC91E02331E009F430E0832F02C090
:1009100080E090E02B8582278170DF91CF911F913D
:100920000F910895CF93DF93A2EEB0E04C911C920B
:10093000E9EEF0E050811082C0EFD0E068811882CB
:1009400020E05D9921605599226055985D9A80E17B
:100950008A95F1F739B121FB0EF0559820FB0EF086
:100960005D980EF45D9A21FB0EF4559A108268830F
:1009700050834C9335FB882780F990E021E0822753
:100980008170DF91CF9108951F920F920FB60F9251
:1009900011242F933F938F939F93AF93BF93809195
:1009A000440390914503A0914603B09147033091D1
:1009B000020323E0230F2D3720F40196A11DB11D62
:1009C00005C026E8230F0296A11DB11D2093020346
:1009D0008093440390934503A0934603B093470349
:1009E0008091480390914903A0914A03B0914B0331
:1009F0000196A11DB11D8093480390934903A093D4
:100A00004A03B0934B03BF91AF919F918F913F9158
:100A10002F910F900FBE0F901F9018951F920F925D
:100A20000FB60F9211242F933F934F935F936F93C1
:100A30007F938F939F93AF93BF93EF93FF93E09137
:100A40001101F09112010995FF91EF91BF91AF91C2
:100A50009F918F917F916F915F914F913F912F91D6
:100A60000F900FBE0F901F9018951F920F920FB608
:100A70000F9211242F933F934F935F936F937F9324
:100A80008F939F93AF93BF93EF93FF93E0910F01E9
:100A9000F09110010995FF91EF91BF91AF919F9156
:100AA0008F917F916F915F914F913F912F910F9017
:100AB0000FBE0F901F9018951F920F920FB60F92B6
:100AC00011242F933F934F935F936F937F938F9353
:100AD0009F93AF93BF93EF93FF93E0910D01F0913C
:100AE0000E010995FF91EF91BF91AF919F918F9169
:100AF0007F916F915F914F913F912F910F900FBE1A
:100B00000F901F9018951F920F920FB60F921124FD
:100B10002F933F934F935F936F937F938F939F9305
:100B2000AF93BF93EF93FF93E0910B01F0910C0112
:100B30000995FF91EF91BF91AF919F918F917F9117
:100B40006F915F914F913F912F910F900FBE0F903A
:100B50001F9018951F920F920FB60F9211242F938A
:100B60003F934F935F936F937F938F939F93AF9335
:100B7000BF93EF93FF93E0910901F0910A0109956A
:100B8000FF91EF91BF91AF919F918F917F916F9165
:100B90005F914F913F912F910F900FBE0F901F903B
:100BA00018951F920F920FB60F9211242F933F9317
:100BB0004F935F936F937F938F939F93AF93BF9365
:100BC000EF93FF938091B900887F803609F49CC031
:100BD00068F5883209F45BC090F4803109F454C0A0
:100BE00038F4882309F4F6C0883009F44DC0F6C003
:100BF000883109F44CC0803209F45DC0EFC0803404
:100C000009F468C048F4803309F455C0883309F00A
:100C1000E5C080939903D8C0803509F44FC088356A
:100C200009F45DC0883409F0D9C0D6C0883909F408
:100C3000C7C0A8F4883709F467C038F4883609F4C7
:100C400063C0803709F460C0C9C0883809F4B8C0EF
:100C5000803909F45FC0803809F0C0C05BC0803BB8
:100C600009F486C038F4803A09F466C0883A09F479
:100C70007FC0B4C0803C09F4A7C0883C09F4A4C07C
:100C8000883B09F48AC0AAC08091960310C0909155
:100C9000980380919703981770F5E091980381E08D
:100CA0008E0F80939803F0E0EB58FC4F8081809387
:100CB000BB0085EC86C0809399038EC0E0919803B9
:100CC00081E08E0F809398038091BB00F0E0EB5899
:100CD000FC4F808390919803809197036EC0E091C0
:100CE000980381E08E0F809398038091BB00F0E021
:100CF000EB58FC4F808380919A0381116DC081E095
:100D00008093950384EA61C083E080939B031092F3
:100D10000103CFCF80910103803208F051C0E091F0
:100D2000010381E08E0F809301038091BB00F0E00E
:100D3000EF51FD4F8083BDCF85EC8093BC001092B6
:100D40009B0380910103803230F4E0910103F0E0D5
:100D5000EF51FD4F10826091010370E0E091DF02DE
:100D6000F091E00281EE92E009951092010336C005
:100D700084E080939B031092DE021092DD02E091EA
:100D8000DB02F091DC0209958091DD02811105C042
:100D900081E08093DD021092BB02E091DE0281E0EF
:100DA0008E0F8093DE02F0E0E554FD4F808180934A
:100DB000BB009091DE028091DD02981708F479CF94
:100DC00085E88093BC000AC085EC8093BC0010923B
:100DD0009B0304C0109299030E945B01FF91EF9165
:100DE000BF91AF919F918F917F916F915F914F9143
:100DF0003F912F910F900FBE0F901F9018951F934A
:100E0000CF93DF93EC01E881F9810190F081E02D2F
:100E10000995182F0E941E112A81213069F028F0AF
:100E20002230B9F02330E1F026C0111124C07C83B8
:100E30006B8381E08A8320C0112311F01A821BC0CA
:100E40002B813C81621B730B6F307105A8F082E02F
:100E500005C0112389F07C836B8383E08A830BC0F8
:100E60001123A9F32B813C81621B730B6F30710539
:100E700010F01A8201C010E0812FDF91CF911F91F5
:100E800008956F927F928F929F92AF92BF92CF926E
:100E9000DF92EF92FF920F931F93CF93DF93909087
:100EA00008018091BA02882321F080911C038111EE
:100EB00088C17724739470ECA72E7DE5B72EEAE005
:100EC0006E2EF4E08F2EA0EDCA2EA7E0DA2EB4E04D
:100ED000EB2EF12C04EF11E0CFE0D0E00E941C02D9
:100EE00020911E0330911F032F5F3F4F30931F034C
:100EF00020931E03853609F45EC07CF5813609F423
:100F00009EC024F58C3309F452C08E3309F44DC0D1
:100F1000813209F08FC080920801D0920501C09201
:100F20000401F0920701E09206011093030100937F
:100F30000201D0930101C09300011092BA02909077
:100F400008018091020190910301C8CF833689F195
:100F50000CF478C000E022E077C08D36A9F16CF483
:100F6000873679F15CF18C3609F064C00E943D024D
:100F700090930701809306014EC08237D1F14CF463
:100F80008F3609F057C00E943D02982E80930801C9
:100F9000A5CF843789F1863709F04CC00E943D0205
:100FA000909301018093000199CF939497CF9A94E5
:100FB00095CF00E01FC000E024E046C000E025E03F
:100FC00043C000E027E040C00E941C028C3619F4A8
:100FD0001092BA0204C07092BA0210921C0380915F
:100FE0001E0390911F03019690931F0380931E038D
:100FF00075CF01E020E028C00E943D02BC01C50180
:101000000E94311C669EC001679E900D1124909332
:101010000501809304018091040190910501609184
:101020000601709107010E94311C709303016093C7
:10103000020154CF10921F0310921E03CCC000E097
:1010400029E002C000E02BE0122F3CE0939E100D3F
:1010500011240E941C02982F977F933259F480919B
:101060001E0390911F03019690931F0380931E030C
:101070001F5FEFCF8D3269F480911E0390911F03A3
:10108000019690931F0380931E0311500E941C022F
:10109000F1CFC0910201D09103018153883058F4FF
:1010A000C0910401D09105010E943D02BC01CE0116
:1010B0000E94311CEB017E01F694E7940E941C0211
:1010C0008E3261F480911E0390911F0301969093DC
:1010D0001F0380931E03CE0DDF1DEECFFE01809116
:1010E000BA02882349F0CE019695879580931C0318
:1010F00080911C03E81BF109C0910001D09101010E
:10110000011104C01F3F11F0C11105C040E0BF0133
:1011100088EE93E046C0113130F020EF210F2036E9
:1011200018F02FE501C020E0822F6CE00E94251C02
:10113000682F74EF7603A0011124BA01620F711DAC
:101140009B016C30710540F4220F331FD901AA5D59
:10115000BE4F2D913C9102C020E030E0873081F0FD
:10116000082E02C0220F331F0A94E2F7823028F0C3
:10117000C90105966AE070E00CC0C90190580CC026
:10118000C90126E0880F991F2A95E1F7029665E0CC
:1011900070E00E94311CCB014C2FC03108F04FE0B1
:1011A000BF01DF91CF911F910F91FF90EF90DF90E2
:1011B000CF90BF90AF909F908F907F906F900C9446
:1011C000650260911C0370E040E088EE93E00E94AD
:1011D000650210921C03DF91CF911F910F91FF9038
:1011E000EF90DF90CF90BF90AF909F908F907F90C7
:1011F0006F9008951F920F920FB60F9211242F93A4
:101200003F934F935F936F937F938F939F93AF938E
:10121000BF93EF93FF938091B8029091B9029C0124
:10122000215031093093B9022093B802892B11F56E
:101230001092720078948091C100807F84608093C6
:10124000C10083E08093BF0088EE8093D1001092AC
:10125000BF001092D20081E08093130180911E03A1
:1012600090911F03892B31F08091B602811102C049
:101270000E944107FF91EF91BF91AF919F918F9194
:101280007F916F915F914F913F912F910F900FBE82
:101290000F901F901895CF93DF93EC018091B502CA
:1012A000811105C081E08093B5020E947E03D7FFC3
:1012B00005C0D195C195D10981E001C080E0CD3252
:1012C00091E0D90714F0CCE2D1E0D0938900C0932B
:1012D0008800882311F0299A01C02998219ADF916A
:1012E000CF910895CF93DF93EC018091B5028111E6
:1012F00005C081E08093B5020E947E03D7FF05C040
:10130000D195C195D10981E001C080E0CD3291E055
:10131000D90714F0CCE2D1E0D0938B00C0938A00BF
:10132000882311F02A9A01C02A98229ADF91CF913E
:1013300008951F920F920FB60F9211242F933F938F
:101340004F935F936F937F938F939F938CB190E0B4
:101350009595879595958795482F417023B130E0F5
:1013600054E0359527955A95E1F7822793278170A8
:101370002091B3025091B4026091B1027091B20217
:10138000942F9227292F30E0982F9527291B310978
:10139000260F371F3093B2022093B1022091B3027F
:1013A0009091B402821729F0491719F091E09093B7
:1013B000B0028093B3024093B4029F918F917F91CA
:1013C0006F915F914F913F912F910F900FBE0F90B2
:1013D0001F901895811102C0289A01C02898209A60
:1013E00008950F931F930E9450120E94D211609192
:1013F0004F0470915004CB01770FAA0BBB0B0091E7
:101400000603109107032091080330910903BC01E2
:10141000CD01601B710B820B930B2DE130E040E09E
:1014200050E00E94451C20932403309325034093F1
:10143000260350932703AAE0B0E00E941C1B0091F2
:101440002003109121032091220330912303DC011A
:10145000CB01800F911FA21FB31F80932003909395
:101460002103A0932203B09323038091A60281114C
:1014700005C081E08093A6020E949B03F89420910E
:10148000B1023091B20278948091A9029091AA029F
:10149000A901481B590BCA01092E000CAA0BBB0B52
:1014A00080930E0390930F03A0931003B093110346
:1014B000409116035091170360911803709119031E
:1014C000840F951FA61FB71F8093160390931703D1
:1014D000A0931803B09319033093AA022093A90292
:1014E0008091A602811105C081E08093A6020E942E
:1014F0009B03F8942091AC023091AD0278948091D6
:10150000A7029091A802A901481B590BCA01092EF4
:10151000000CAA0BBB0B80930A0390930B03A093C0
:101520000C03B0930D03409112035091130360918B
:10153000140370911503840F951FA61FB71F809386
:10154000120390931303A0931403B09315033093E5
:10155000A8022093A7021F910F910895CF9380E0D6
:1015600090E00E94720980E090E00E944B09109286
:10157000720085E791E090931F0380931E03109201
:101580001D0310921C030E9441075D98559A81E04B
:101590000E94EA09479A3F9A809113018823E1F358
:1015A00080911E0390911F03892BB1F784ED9EEF6C
:1015B0000E94720984ED9EEF0E944B0968EC70E076
:1015C00080E090E00E945F108CE291E00E9472093E
:1015D0008CE291E00E944B09CEE16AE070E080E08D
:1015E00090E00E945F100E94F10980912003909189
:1015F0002103A0912203B09123038035934CA105D0
:10160000B1052CF487E891E00E94E61202C0C150B7
:1016100021F78CE291E090931B0380931A031092C0
:1016200016031092170310921803109219031092C8
:101630001203109213031092140310921503CF910A
:101640000895CF93C82F81E080935103C093730313
:1016500010925203109274036FE08EE094E00E94A7
:10166000E9010E94751181110FC061E08C2F0E9469
:101670002A1190919C0380919D03981729F08EE088
:1016800094E0CF910C949D018FEF9FEFCF9108953F
:101690000E94831EFC0180912903811103C08FEFFA
:1016A0009FEF08959FB7F89482E08093E90020911E
:1016B000F20030E01216130614F421E030E0211598
:1016C000310559F0289884E6809328038091F10031
:1016D00080838091F200882319F09FBFC90108958B
:1016E0008BE68093E800F9CF2FB7F89483E08093DE
:1016F000E9009091E800892F807295FF04C09091D5
:10170000F20080E4891B2FBF089580913C03811172
:101710000DC082E08093380384E0809339031092F7
:101720003B0310923A0381E080933C0388E393E00B
:10173000089540914E0350914F0320914C033091F6
:101740004D0342175307B4F49091E8009570E1F30C
:101750009091E80092FD19C08093F10080914E03B2
:1017600090914F0301968F739927892B19F48EEF6F
:101770008093E80080914E0390914F0301969093DF
:101780004F0380934E0381E0089580E00895DF9237
:10179000EF92FF920F931F93CF93DF93D82E8A017E
:1017A0007B01E40EF51EEB01CE15DF0571F0D7FECF
:1017B00003C0FE01849101C088810E94990B21968B
:1017C0008111F2CF8FEF9FEF01C0C801DF91CF9160
:1017D0001F910F91FF90EF90DF900895615030F0CE
:1017E0002091F100FC0120830196F8CF289884E62F
:1017F000809328030895CF92DF92EF92FF920F9388
:101800001F93CF93DF936C017A018B01C0E0D0E08E
:10181000CE15DF0589F0D8016D918D01D601ED91CE
:10182000FC910190F081E02DC6010995892B11F4FE
:101830007E0102C02196ECCFC701DF91CF911F91AD
:101840000F91FF90EF90DF90CF900895CF93DF93AB
:101850001F92CDB7DEB76983DC01ED91FC91028068
:10186000F381E02D41E050E0BE016F5F7F4F0995AD
:101870000F90DF91CF91089583E08093E9008091EC
:10188000F200882319F08AE38093E8000895FC01B0
:101890008485958597FD0BC09FB7F89482E080936F
:1018A000E9008091F2009FBF90E0019608959FB7F4
:1018B000F89482E08093E9008091F2009FBF90E06D
:1018C00008953FB7F8948091480390914903A091FF
:1018D0004A03B0914B0326B5A89B05C02F3F19F0D2
:1018E0000196A11DB11D3FBFBA2FA92F982F8827A0
:1018F000820F911DA11DB11DBC01CD0142E0660FFB
:10190000771F881F991F4A95D1F708950F931F934A
:10191000CF93DF93EC0188819981009729F02A8188
:101920003B812617370788F48B016F5F7F4F0E943A
:10193000B91D009761F0998388831B830A832C81EA
:101940003D81232B11F4FC01108281E001C080E075
:10195000DF91CF911F910F9108950F931F93CF9314
:10196000DF931F92CDB7DEB782E0898342E450E077
:1019700063E771E080E80E94C70B0E94850BDC01E1
:1019800012960D911C9113970115110569F0D8015C
:10199000ED91FC910280F381E02DBE016F5F7F4FDE
:1019A000C801099597FF07C089810F90DF91CF91FA
:1019B0001F910F910895F80100851185E5CF0E94D0
:1019C000740B90E008950F931F93CF93DF931F92B2
:1019D000CDB7DEB78C01FC018485958597FF0EC0DD
:1019E000CE0101960E944A0B019719F4298130E03B
:1019F00002C02FEF3FEFF80135872487F801848577
:101A000095850F90DF91CF911F910F910895CF93FE
:101A1000DF931F92CDB7DEB7FC018485958597FDD6
:101A200005C02FEF3FEF358724870BC0CE0101960D
:101A30000E944A0B019719F4898190E002C08FEF50
:101A40009FEF0F90DF91CF910895EF92FF920F9348
:101A50001F93CF93DF9300D0CDB7DEB78C0169839E
:101A60001A82FC01E480F580FFEFEF1AFF0AB7014C
:101A70000E94860C882381F0F801208131818481C5
:101A80009581BE016F5F7F4F820F931F0E94911E51
:101A9000F801F582E48281E00F900F90DF91CF9101
:101AA0001F910F91FF90EF900895EF92FF920F9387
:101AB0001F93CF93DF93EC017B018A01BA010E944F
:101AC000860C2881398181110DC02115310519F04D
:101AD000C9010E94211D198218821D821C821B824D
:101AE0001A8206C01D830C83B701C9010E94911E92
:101AF000CE01DF91CF911F910F91FF90EF9008954C
:101B00001F920F920FB60F9211248F939F93809183
:101B1000E1009091E100937F9093E10083FF0FC07B
:101B20001092E90091E09093EB001092EC0092E3A8
:101B30009093ED001092290398E09093F00082FFBB
:101B400020C093E09093E9009091F200992319F05E
:101B50009AE39093E80090915003992339F0909183
:101B60005003915090935003992389F19091280349
:101B7000992339F090912803915090932803992349
:101B800041F184FF10C08091E2008E7E81608093DD
:101B9000E2008091E1008F7E8093E1008091040358
:101BA0008E7E806111C080FF16C08091E2008E7E23
:101BB00080618093E2008091E1008E7E8093E1005D
:101BC000809104038E7E81608093040304C05D9A3B
:101BD000CDCF289AD6CF9F918F910F900FBE0F90A7
:101BE0001F9018951F920F920FB60F921124CF924B
:101BF000DF92EF92FF920F931F932F933F934F9398
:101C00005F936F937F938F939F93AF93BF93EF9364
:101C1000FF93CF93DF93CDB7DEB76C97DEBFCDBF19
:101C20001092E9008091E80083FFEDC168E0CE01E9
:101C300045960E94EE0B82EF8093E8008D8987FF26
:101C400005C09091E80090FFFCCF03C09EEF9093F9
:101C5000E800982F907609F0C6C09E892F89188DCC
:101C600091110CC0803829F4809105038093F10014
:101C700002C01092F1001092F10048C1422F50E0D2
:101C8000512B913051F4811141C14130510509F07E
:101C90003DC1809105038D7F0BC0933061F48111AC
:101CA00035C14130510509F031C180910503826091
:101CB000809305032BC1953041F48091E80080FFAB
:101CC000FCCF20682093E30021C1963009F05FC06B
:101CD000EB8CFC8C1092E90010924F0310924E0393
:101CE000123091F510924D0310924C030E94AD0CEE
:101CF00099E0BE016F5F7F4FDB01E92F1D92EA95EE
:101D0000E9F799831A8391E09E8390EA98879AEF86
:101D1000998720914E0330914F03275F3F4F3C83BB
:101D20002B838D831092E90010924F0310924E0383
:101D3000F0924D03E0924C0349E050E080E00E94B5
:101D4000C70B0E94AD0CE2C0F0924D03E0924C0331
:101D50000E94850BDC011296ED90FC901397E11424
:101D6000F10409F4C0C0D701ED91FC910480F58124
:101D7000E02DBE016B5E7F4FC7010995009719F0FA
:101D80000CF0C4C0C7C0F701E084F184E8CF9730FD
:101D900009F4C0C0983021F481E08093F100B6C00E
:101DA000993009F0B3C0837009F0B4C0EFE3F1E0FB
:101DB00081E021E036E39081992361F08093E9008E
:101DC0002093EB0091919093EC003093ED008F5FA6
:101DD000873089F78EE78093EA001092EA008F89B6
:101DE0008093290393C08B8D9C8D1092E9001092F3
:101DF0004F0310924E0390934D0380934C03898DB3
:101E0000811156C08E899D89913A59F4813209F029
:101E100081C047E050E068E171E080E00E94C70BBC
:101E200075C0913209F076C0833289F4888D90E0D4
:101E3000982F88272F89822BA0E0B0E0809314018F
:101E400090931501A0931601B09317015FC08032E3
:101E500069F48091E80082FFFCCF67E088E191E0BF
:101E60000E94EE0B8BEF8093E80006C0823209F0EF
:101E70004DC08F8980931F0180910303882319F03F
:101E8000EEEFFAE002C0E0E0F8E0809118019091F6
:101E90001901A0911A01B0911B01803B9440A1054A
:101EA000B10509F07BC080911F0180FF93C076C00F
:101EB0000E94850BDC0112960D911C911397011560
:101EC000110541F1D801ED91FC910190F081E02DD7
:101ED000BE016B5E7F4FC8010995811117C0F801E3
:101EE00000851185ECCF113009F44EC0133091F408
:101EF0008F89882309F445C0823081F440E862E18B
:101F00008EED91E00E942219882321F08EEF8093BC
:101F1000E80079C081E28093EB0075C0813029F43C
:101F200040E862E18BEC91E0EDCF833099F70E94BD
:101F3000850BDC011296ED90FC9013978E010F5FDC
:101F40001F4F6801E114F10479F0D701ED91FC9184
:101F50000680F781E02DB801C7010995080F111D12
:101F6000F701E084F184EECFD8011C92F6010190D4
:101F70000020E9F73197BF016C197D0940E0C601E7
:101F8000C1CF65EB71E002C069EB71E061157105CD
:101F900009F2FB01449150E080E840CF0FB6F8947D
:101FA000A895809160008861809360001092600025
:101FB0000FBEA895EE3F2AE0F20739F08091FE0AA5
:101FC0009091FF0A91838083A1CF1092FF0A109213
:101FD000FE0A9CCFEE3F8AE0F80731F080819181C4
:101FE0009093FF0A8093FE0A87E797E791838083A7
:101FF0009BE088E10FB6F894A895809360000FBE2F
:102000009093600083CF6C960FB6F894DEBF0FBE3E
:10201000CDBFDF91CF91FF91EF91BF91AF919F9194
:102020008F917F916F915F914F913F912F911F9170
:102030000F91FF90EF90DF90CF900F900FBE0F9019
:102040001F90189590E0FC013197EF30F105B0F545
:10205000EA5AFF4F0C94641C809180008F7703C074
:10206000809180008F7D8093800008958091800012
:10207000877FF9CF84B58F7702C084B58F7D84BD0B
:102080000895809190008F7707C0809190008F7D98
:1020900003C080919000877F809390000895809185
:1020A000C0008F7703C08091C0008F7D8093C000F7
:1020B00008958091C200877F8093C20008958F9217
:1020C0009F92AF92BF92CF92DF92EF92FF926B01FD
:1020D0007C010E94610C4B015C01C114D104E1043C
:1020E000F104F1F00E94610CDC01CB01881999091F
:1020F000AA09BB09883E9340A105B10570F321E010
:10210000C21AD108E108F10888EE880E83E0981E13
:10211000A11CB11CC114D104E104F10419F7DDCFF5
:10212000FF90EF90DF90CF90BF90AF909F908F90F7
:1021300008958F929F92AF92BF92CF92DF92EF92CB
:10214000FF920F931F93CF93DF935C016B017A0192
:1021500080911F01882309F45BC0809129038823A3
:1021600009F456C08091040380FF05C08091E0000F
:1021700082608093E000E70110E00AEF83E0882EA0
:102180009AE3992E2097D9F10E94740B81110AC00D
:10219000015009F43DC061E070E080E090E00E94F1
:1021A0005F10F0CF282F30E0C217D3070CF48C2F2C
:1021B0004FB7F8948092E9009091E80095FF1DC018
:1021C000282F30E0C21BD30BF601982F915020F03E
:1021D00081918093F100FACFC20ED31E112319F022
:1021E0009092E80009C08091E80085FD06C09092B9
:1021F000E80011E0209709F010E04FBFC3CF1111A4
:10220000C3CF5D9884E6809350031E141F0444F0EE
:1022100081E090E0F5019383828380E090E001C04B
:10222000C701DF91CF911F910F91FF90EF90DF9049
:10223000CF90BF90AF909F908F9008952FB7F89454
:102240006091440370914503809146039091470348
:102250002FBF089590919B039111FCCF613208F03C
:1022600060E291E090939B0390939A032FEF209369
:10227000990310929803260F209397039093960347
:1022800090919603880F892B8093960380919503F4
:10229000813061F410929503809196038093BB0086
:1022A0008091BC0083FDF8CF85EC01C085EE809362
:1022B000BC0080919B038130E1F3809198038617E5
:1022C00010F460919803A5E7B3E02EE933E0F9013B
:1022D0008E2F821B861718F48D918193F9CF10925F
:1022E0009D0360939C03862F089520917403909121
:1022F0007303213208F04AC080919B038111FCCF07
:1023000032E030939B0331E030939A033FEF3093F8
:1023100099031092980320939703A3E5B3E045E750
:1023200053E0FA013E2F341B321718F43D913193DC
:10233000F9CF1092960320919603990F922B9093C8
:10234000960390919503913061F4109295039091CA
:1023500096039093BB009091BC0093FDF8CF95EC51
:1023600001C095EE9093BC0090919B039230E1F3F5
:10237000909199039F3F79F080919903803241F0C9
:1023800080919903803331F084E005C081E003C07F
:1023900082E001C083E01092520310927403109205
:1023A00051030895BF92CF92DF92EF92FF920F9365
:1023B0001F93CF93DF938091560491E09093510344
:1023C00080937303109252031092740362E28EE0C2
:1023D00094E00E94E9010E94751166E08091560424
:1023E0000E942A110E941E117B0180919C0390E0A3
:1023F00020919D03821B91090697ACF480915704AC
:1024000090915804892B89F30E941E116E197F093F
:1024100080915704909158048617970730F781E010
:102420008093590433C08EE094E00E949D01C82E31
:102430008EE094E00E949D01B82E8EE094E00E9410
:102440009D01E82E8EE094E00E949D01D82E8EE042
:1024500094E00E949D01F82E8EE094E00E949D0180
:102460001B2D00E00C2910934E0400934D04DD2D2C
:1024700020E0C22FCE29D0935004C0934F04982F50
:1024800088278F299093520480935104DF91CF9134
:102490001F910F91FF90EF90DF90CF90BF90089524
:1024A000BF92CF92DF92EF92FF920F931F93CF9341
:1024B000DF938091560491E09093510380937303CE
:1024C000109252031092740368E28EE094E00E942E
:1024D000E9010E94751166E0809156040E942A115C
:1024E0000E941E117B0180919C0390E020919D032E
:1024F000821B91090697ACF480915704909158047F
:10250000892B89F30E941E116E197F09809157044F
:10251000909158048617970730F781E0809359040B
:1025200033C08EE094E00E949D01C82E8EE094E0BE
:102530000E949D01B82E8EE094E00E949D01E82E3D
:102540008EE094E00E949D01D82E8EE094E00E94DF
:102550009D01F82E8EE094E00E949D011B2D00E06D
:102560000C291093480400934704DD2D20E0C22F6E
:10257000CE29D0934A04C0934904982F88278F29E5
:1025800090934C0480934B04DF91CF911F910F9156
:10259000FF90EF90DF90CF90BF900895BC0100971F
:1025A00091F0FC0101900020E9F73197AF01481B41
:1025B000590BE091BE03F091BF030280F381E02D3F
:1025C0008EEB93E0099480E090E00895CF93DF9341
:1025D0000E94CE12EC0186ED91E00E94CE128C0F8B
:1025E0009D1FDF91CF910895CF93C82F81E08093F5
:1025F0005103C093730310925203109274036FE05F
:102600008EE094E00E94E9010E94751181110FC0D3
:1026100061E08C2F0E942A1190919C0380919D0370
:10262000981729F08EE094E0CF910C949D018FEFE4
:102630009FEFCF910895CF93DF93282F30E0F901DA
:10264000E35CFD4F8491F901E25EFD4FD491F90105
:10265000E150FE4FC491CC2389F081110E942210D9
:10266000EC2FF0E0EE0FFF1FEF50FE4FA591B4915D
:102670008FB7F894EC91ED2BEC938FBFDF91CF9156
:1026800008951F93CF93DF93162FCAE3D4E0998563
:1026900021E0209351039093730310925203109200
:1026A0007403682F8EE094E00E94E901612F8EE0B0
:1026B00094E00E94E9010E9475118E83DF91CF9111
:1026C0001F91089580911A0490911B040C94211D70
:1026D000CF93DF93CDB7DEB764970FB6F894DEBF24
:1026E0000FBECDBF789484B5826084BD84B581600F
:1026F00084BD85B5826085BD85B5816085BD8091CD
:102700006E00816080936E00109281008091810044
:10271000826080938100809181008160809381003C
:102720008091800081608093800080919100826020
:1027300080939100809191008160809391008091BD
:1027400090008160809390008091C10084608093AC
:10275000C1008091C10082608093C1008091C1005E
:1027600081608093C1008091C30081608093C30029
:102770008091C00082608093C0008091C20081601F
:102780008093C20080917A00846080937A00809167
:102790007A00826080937A0080917A0081608093D1
:1027A0007A0080917A00806880937A0010922903E1
:1027B00010920503109204038091D70081608093EA
:1027C000D70080EA8093D80089B5806189BD89B53A
:1027D000826089BD09B400FEFDCF61E070E080E059
:1027E00090E00E945F108091D8008F7C8061809380
:1027F000D8008091E000807F8093E0008091E1002C
:102800008E7E8093E1008DE08093E200559A209ABD
:10281000EEEFFFE7859194918B3F9C4D19F481E099
:102820008093030347983F9A81E00E94EA0910923F
:102830009D0310929C031092520310927403109205
:102840009B0381E080939A031092950382E00E949B
:102850001B1383E00E941B138091B9008E7F80932D
:10286000B9008091B9008D7F8093B90088E480938E
:10287000B80085E48093BC008BE60E94F412893690
:10288000910589F08AE60E94F4128936910571F06B
:102890008BE991E00E94E61268EC70E080E090E045
:1028A0000E945F10F5CF81E090E002C080E090E0F0
:1028B0001092550410925404019709F456C08AE608
:1028C0008093560460E880E10E94C41960E881E1C9
:1028D0000E94C41964E082E10E94C41968E581E1A4
:1028E0000E94C41968EE73E080E090E00E945F10DF
:1028F00004E610E0C12CD12C76010E9450120E94F7
:10290000D21180914F0490915004092E000CAA0B13
:10291000BB0BC80ED91EEA1EFB1E61E070E080E012
:1029200090E00E945F100150110939F7C701B6010C
:1029300024E630E040E050E00E94451C209306036E
:102940003093070340930803509309038EE10E94DC
:10295000210BCD9761F08CE10E94210BCD9751F0B6
:1029600085E792E00E94E612FFCF8BE6A9CF81E0D7
:1029700090E002C080E090E0109242041092410486
:10298000019709F45DC48CE18093430460E780E221
:102990000E94411360E081E20E94411360E082E204
:1029A0000E9441136CE083E20E94411380E00E9488
:1029B000EA098FEF9FEF9093CB038093CA0374EDE6
:1029C000272E7EEF372E0E941E1120912A03309170
:1029D0002B03AB01421B530B4A30510508F487C14E
:1029E00021E04C30510508F420E020933603709329
:1029F0002B0360932A030E94F10940913203509106
:102A000033036091340370913503809116039091E4
:102A10001703A0911803B09119038C019D01041BA9
:102A2000150B260B370B098B1A8B2B8B3C8B0093CA
:102A30001603109317032093180330931903809102
:102A40002E0390912F03A0913003B0913103809019
:102A5000120390901303A0901403B0901503881AEA
:102A6000990AAA0ABB0A8092120390921303A092B9
:102A70001403B092150340900E0350900F03609022
:102A8000100370901103441A550A660A770A40929F
:102A90000E0350920F036092100370921103C090C6
:102AA0000A03D0900B03E0900C03F0900D03C81ABA
:102AB000D90AEA0AFB0AC0920A03D0920B03E092F9
:102AC0000C03F0920D038091470490914804883ED6
:102AD00013E0910744F480914B0490914C04181634
:102AE00019065CF004C08C349D410CF054C08091F8
:102AF0004B0490914C0497FF4EC010921B03109210
:102B00001A031092160310921703109218031092D2
:102B100019031092120310921303109214031092CF
:102B2000150380E090E00E94720980E090E00E942E
:102B30004B098091240390912503A0912603B09125
:102B400027030196A11DB11D0397A105B10500F54D
:102B500080914B0490914C04181619066CF480E88F
:102B600098E3A1E0B0E08093200390932103A09329
:102B70002203B09323030CC000E817EC2EEF3FEFC5
:102B80000093200310932103209322033093230307
:102B900010922D03ACC0209120033091210340916D
:102BA000220350912303A7EEB3E00E941C1B28EEE2
:102BB00033E040E050E00E94451C2D873E874F8760
:102BC000588B20932003309321034093220350938A
:102BD0002303209124033091250340912603509133
:102BE0002703A2E8B0E00E941C1B2D853E854F857F
:102BF0005889260F371F481F591FABE0B0E00E94CD
:102C00001C1B6D877E878F87988BAEE1B0E029898A
:102C10003A894B895C89280D391D4A1D5B1D0E942C
:102C20001C1B0D851E852F853889060F171F281F31
:102C3000391F0D871E872F87388BA30192012C0D1A
:102C40003D1D4E1D5F1DA8EEB3E00E941C1B0D85AF
:102C50001E852F853889600F711F821F931F2CE5F9
:102C60003BE240E050E00E94451C80911A039091A5
:102C70001B03280F391F2D3211E031072CF430933C
:102C80001B0320931A0306C08CE291E090931B0370
:102C900080931A0380911A0390911B03843D9E4FE9
:102CA00024F430921B0320921A0329893A892819A7
:102CB000390980911A0390911B03790137FF03C0F2
:102CC0004FEFE41AF40AF594E794E80EF91E37FF83
:102CD00002C02F5F3F4F35952795821B930B0E94B3
:102CE0007209C7010E944B0981E080932D030E9465
:102CF0001E114B015C018091240490912504D401A4
:102D0000A81BB90BA536B10520F09092250480923E
:102D1000240416E08EEB93E00E94470C1816190667
:102D20000CF095C18EEB93E00E94070D082F682FE1
:102D30008AE194E00E94250D0A3061F780EC91E071
:102D40000E94CE12E091BE03F091BF0340911E0499
:102D500050911F0460911A0470911B040280F3814A
:102D6000E02D8EEB93E0099586ED91E00E94CE1266
:102D700080911E0490911F04009731F0E0911A0495
:102D8000F0911B04309721F410922C03ECE2F3E055
:102D90002081233539F489ED91E00E94E6120E94EA
:102DA000AE0A42C1892B31F0E0911A04F0911B0464
:102DB000309721F410922C03ECE2F3E080818C3404
:102DC00009F584EE91E00E94E6128CE99FEF0E94E3
:102DD00072098CE99FEF0E944B096CE271E080E080
:102DE00090E00E945F1080E090E00E94720980E015
:102DF00090E00E944B0960ED77E080E090E00E9457
:102E00005F1012C11A8219821C821B821E821D82CF
:102E100040E050E068ED71E0CE0101960E94550D52
:102E200018861F821A8619861C861B8640E050E091
:102E300068ED71E0CE0107960E94550DC12CD12C92
:102E4000E12CF12C80911E0490911F04C816D90624
:102E500080F4E0911A04F0911B04309729F4109249
:102E60002C03ECE2F3E002C0EC0DFD1D60816A3042
:102E700019F4EF28C1F5CBC0603239F4EA94EF2899
:102E8000F1F0EE24E394F12C2AC0862F062E000CDC
:102E9000990BC0970A97B0F06D3209F007C11E9DDB
:102EA000F0011F9DF00D112421E030E02C0F3D1F9B
:102EB000E20FF31F84819581892B21F0F7C08FEEFB
:102EC00091E0A7C01E9DC0011F9D900D1124A1E09F
:102ED000B0E0AC0FBD1F8A0F9B1F0E94250D3FEF76
:102EE000C31AD30AAFCF89819A81009719F00E9443
:102EF000E51903C060E070E0CB017B01CF80D8848E
:102F0000C114D10431F0C6010E94E5192B013C0126
:102F100003C0412C512C3201B701FF0C880B990BD7
:102F20000E94231A20E030E04EED52E40E945E1A27
:102F300020E030E040E451E40E945E1A20E030E0FE
:102F400040E850E40E945E1A20E030E040EC50E49B
:102F50000E946D1B20E030E04AE754E40E946D1BA4
:102F600020E030E040E251E40E946D1B0E94DF1B34
:102F7000E62E660FFF08B201550C880B990B0E94D4
:102F8000231A20E030E04EED52E40E945E1A20E069
:102F900030E040E451E40E945E1A20E030E040E876
:102FA0005EE30E945E1A20E030E04AE754E40E94AB
:102FB0006D1B0E94DF1B062E000C770B88279927BC
:102FC0008E199F09861B970B092E000CAA0BBB0BB1
:102FD0008093320390933303A0933403B09335036B
:102FE000C701861B970B092E000CAA0BBB0B809305
:102FF0002E0390932F03A0933003B0933103C601A7
:103000000E94211D89819A810E94211D0DC08DE1A0
:1030100092E00E94E6128F8198850E94211D89818D
:103020009A810E94211D0AC00E941E1160932004F3
:1030300070932104809322049093230440E050E095
:1030400068ED71E08AE194E00E94550D63CEAA24F8
:10305000BB248091200490912104A0912204B0917E
:103060002304881A990AAA0ABB0A49EE841643E087
:103070009406A104B10480F010923203109233033D
:10308000109234031092350310922E0310922F03E6
:10309000109230031092310380912D03882309F49C
:1030A0004EC080913703811104C049C08AE492E088
:1030B000B0CF80911301882339F080911E03909145
:1030C0001F03892B09F4ACC00E941E117F716C365E
:1030D00057E0750738F0611580E1780740F06C36ED
:1030E000774150F484E190E044E150E009C08FE082
:1030F00090E049E150E004C089E190E04FE050E009
:1031000023E0569547952A95E1F760E070E04093FB
:10311000320350933303609334037093350333E0E9
:10312000969587953A95E1F7A0E0B0E080932E035D
:1031300090932F03A0933003B09331033EC01092BD
:1031400072008091C100807F84608093C10083E021
:103150008093BF0088EE8093D1001092BF00109240
:10316000D20081E08093130110921F0310921E037E
:103170008EE294E00E94FF068823A1F010923703AC
:1031800010923203109233031092340310923503DD
:1031900010922E0310922F031092300310923103DD
:1031A0000E94AE0A86E294E00E94FF06882329F07E
:1031B00081E0809337030E94AE0A809136030E941B
:1031C000EA09209124033091250340912603509170
:1031D0002703A2E8B0E00E941C1B0091200310917D
:1031E00021032091220330912303DC01CB01801BBA
:1031F000910BA20BB30B181619061A061B0624F422
:10320000479A3F9A5D9A03C047983F9A5D98559AAE
:1032100080E090E0892B09F4D6CB0E940000CFCB50
:103220001092720086EE90E090931F0380931E032D
:1032300081E080931D0310921C030E94410744CF3C
:103240008EE1A2CBCF92DF92EF92FF920F931F936A
:10325000CF93DF931F92CDB7DEB7182F062FE42E42
:10326000862F880F8E5F99830E94990B83E00E94BE
:10327000990BF12EC12E9981D92E8C2D8F19801783
:1032800098F4F601E7FE02C0849101C080810E949B
:10329000990B182F80E00E94990B8123FFEFCF1A22
:1032A000DF0A8111EACF01C081E00F90DF91CF9159
:1032B0001F910F91FF90EF90DF90CF900895EEEB6C
:1032C000F3E01382128288EE93E0A0E0B0E0848302
:1032D0009583A683B78329E431E0318320832FEFE0
:1032E0003FEF35872487EEE0F4E013821282848377
:1032F0009583A683B7838BE591E091838083E7E490
:10330000F4E081E090E096878587118A108A128A1E
:10331000EAE3F4E090878783138612861486EEE250
:10332000F4E01282158210868EE0818781E0828728
:10333000838783E791E091838083E6E2F4E0128261
:1033400015828DE691E0918380830E941E11709317
:103350002504609324040E941E116093200470933E
:1033600021048093220490932304EAE1F4E0118283
:103370001082138212821582148240E050E068EDC0
:1033800071E0CF010C94550D1F93CF93DF93162F4F
:10339000C7E4D4E09F8521E0209351039093730309
:1033A0001092520310927403682F8EE094E00E94F2
:1033B000E901612F8EE094E00E94E9010E947511FD
:1033C0008C87DF91CF911F9108951F93FC0199275E
:1033D0008827BC01E89411911032E9F3193010F0FC
:1033E0001E30C8F31B3251F01D3249F4689406C0F8
:1033F0000E940C1A610F711D811D911D11911053B6
:103400001A30B0F33EF490958095709561957F4F9A
:103410008F4F9F4F1F910895592F482F372F262FD9
:10342000660F771F881F991F660F771F881F991FC8
:10343000620F731F841F951F660F771F881F991FC8
:103440000895E89409C097FB3EF490958095709597
:1034500061957F4F8F4F9F4F9923A9F0F92F96E9E0
:10346000BB279395F695879577956795B795F11155
:10347000F8CFFAF4BB0F11F460FF1BC06F5F7F4FF2
:103480008F4F9F4F16C0882311F096E911C0772304
:1034900021F09EE8872F762F05C0662371F096E80D
:1034A000862F70E060E02AF09A95660F771F881FDC
:1034B000DAF7880F9695879597F908950E94711A03
:1034C0000C94E21A0E94D41A38F00E94DB1A20F001
:1034D000952311F00C94CB1A0C94D11A11240C944E
:1034E000161B0E94F31A70F3959FC1F3950F50E0DD
:1034F000551F629FF001729FBB27F00DB11D639FA6
:10350000AA27F00DB11DAA1F649F6627B00DA11D4B
:10351000661F829F2227B00DA11D621F739FB00DF1
:10352000A11D621F839FA00D611D221F749F332761
:10353000A00D611D231F849F600D211D822F762FFA
:103540006A2F11249F5750409AF0F1F088234AF0D7
:10355000EE0FFF1FBB1F661F771F881F9150504043
:10356000A9F79E3F510580F00C94CB1A0C94161BC2
:103570005F3FE4F3983ED4F3869577956795B795CA
:10358000F795E7959F5FC1F7FE2B880F911D9695E4
:10359000879597F9089597F99F6780E870E060E054
:1035A00008959FEF80EC089500240A9416161706DC
:1035B00018060906089500240A9412161306140624
:1035C00005060895092E0394000C11F4882352F087
:1035D000BB0F40F4BF2B11F460FF04C06F5F7F4F3F
:1035E0008F4F9F4F089557FD9058440F551F59F026
:1035F0005F3F71F04795880F97FB991F61F09F3FE0
:1036000079F087950895121613061406551FF2CF08
:103610004695F1DF08C0161617061806991FF1CF58
:1036200086957105610508940895E894BB2766277F
:103630007727CB0197F908950E945E1BA59F900DF7
:10364000B49F900DA49F800D911D112408952F9279
:103650003F924F925F926F927F928F929F92AF9222
:10366000BF92CF92DF92EF92FF920F931F93CF936F
:10367000DF93CDB7DEB7CA1BDB0B0FB6F894DEBF06
:103680000FBECDBF09942A88398848885F846E842C
:103690007D848C849B84AA84B984C884DF80EE8076
:1036A000FD800C811B81AA81B981CE0FD11D0FB67F
:1036B000F894DEBF0FBECDBFED010895A29FB0010B
:1036C000B39FC001A39F700D811D1124911DB29F56
:1036D000700D811D1124911D08950E94811B0C9471
:1036E000E21A0E94DB1A58F00E94D41A40F029F422
:1036F0005F3F29F00C94CB1A51110C94161B0C94BB
:10370000D11A0E94F31A68F39923B1F3552391F368
:10371000951B550BBB27AA2762177307840738F040
:103720009F5F5F4F220F331F441FAA1FA9F335D09D
:103730000E2E3AF0E0E832D091505040E695001C51
:10374000CAF72BD0FE2F29D0660F771F881FBB1F0B
:10375000261737074807AB07B0E809F0BB0B802DE9
:10376000BF01FF2793585F4F3AF09E3F510578F015
:103770000C94CB1A0C94161B5F3FE4F3983ED4F3E1
:10378000869577956795B795F7959F5FC9F7880FE9
:10379000911D9695879597F90895E1E0660F771F3B
:1037A000881FBB1F621773078407BA0720F0621BCC
:1037B000730B840BBA0BEE1F88F7E09508950E94F7
:1037C000E61B6894B1110C94161B08950E94FB1A15
:1037D00088F09F5798F0B92F9927B751B0F0E1F0D2
:1037E000660F771F881F991F1AF0BA95C9F714C082
:1037F000B13091F00E94151BB1E008950C94151B97
:10380000672F782F8827B85F39F0B93FCCF38695BA
:1038100077956795B395D9F73EF490958095709517
:1038200061957F4F8F4F9F4F0895DB018F939F933B
:103830000E941C1BBF91AF91A29F800D911DA39F61
:10384000900DB29F900D11240895991B79E004C04A
:10385000991F961708F0961B881F7A95C9F78095CF
:103860000895AA1BBB1B51E107C0AA1FBB1FA617C7
:10387000B70710F0A61BB70B881F991F5A95A9F719
:1038800080959095BC01CD010895052E97FB1EF4FF
:1038900000940E945C1C57FD07D00E946A1C07FC24
:1038A00003D04EF40C945C1C5095409530952195B6
:1038B0003F4F4F4F5F4F089590958095709561955C
:1038C0007F4F8F4F9F4F0895EE0FFF1F0590F4918C
:1038D000E02D0994A1E21A2EAA1BBB1BFD010DC00D
:1038E000AA1FBB1FEE1FFF1FA217B307E407F507B0
:1038F00020F0A21BB30BE40BF50B661F771F881F8C
:10390000991F1A9469F760957095809590959B0121
:10391000AC01BD01CF010895CF93DF9382309105B3
:1039200010F482E090E0E0915C04F0915D0420E00E
:1039300030E0C0E0D0E0309711F14081518148176C
:103940005907C0F04817590761F482819381209785
:1039500019F09B838A832BC090935D0480935C0451
:1039600026C02115310519F04217530718F49A01A2
:10397000BE01DF01EF010280F381E02DDCCF2115D4
:10398000310509F1281B390B2430310590F41296CA
:103990008D919C9113976115710521F0FB01938323
:1039A000828304C090935D0480935C04FD01329691
:1039B00044C0FD01E20FF31F81939193225031091E
:1039C0002D933C933AC020915A0430915B04232BF1
:1039D00041F4209122013091230130935B04209324
:1039E0005A0420912001309121012115310541F423
:1039F0002DB73EB74091240150912501241B350B72
:103A0000E0915A04F0915B04E217F307A0F42E1B37
:103A10003F0B2817390778F0AC014E5F5F4F241732
:103A2000350748F04E0F5F1F50935B0440935A04D4
:103A30008193919302C0E0E0F0E0CF01DF91CF915C
:103A400008950F931F93CF93DF93009709F48CC0D1
:103A5000FC0132971382128200915C0410915D0484
:103A60000115110581F420813181820F931F20916E
:103A70005A0430915B042817390779F5F0935B04F9
:103A8000E0935A0471C0D80140E050E0AE17BF0780
:103A900050F412962D913C911397AD0121153105EB
:103AA00009F1D901F3CF9D01DA01338322836081CB
:103AB0007181860F971F8217930769F4EC012881A3
:103AC0003981260F371F2E5F3F4F318320838A8134
:103AD0009B8193838283452B29F4F0935D04E093CB
:103AE0005C0442C01396FC93EE931297ED0149914A
:103AF00059919E01240F351FE217F30771F480815D
:103B00009181840F951F029611969C938E938281CA
:103B1000938113969C938E931297E0E0F0E0D80186
:103B200012968D919C911397009719F0F8018C01D2
:103B3000F6CF8D919C9198012E5F3F4F820F931F7E
:103B400020915A0430915B042817390769F43097A3
:103B500029F410925D0410925C0402C01382128258
:103B600010935B0400935A04DF91CF911F910F9142
:103B70000895A0E0B0E0EFEBFDE10C942B1BEC010D
:103B8000009721F4CB010E948C1CB8C0FC01E60F09
:103B9000F71F9C0122503109E217F30708F4ACC06B
:103BA000D9010D911C91119706171707B0F0053038
:103BB000110508F49FC0C80104978617970708F4F9
:103BC00099C002501109061B170B019311936D93B5
:103BD0007C93CF010E94211D8DC05B01A01AB10A08
:103BE0004C01800E911EA0915C04B0915D0440E0F8
:103BF00050E0E12CF12C109709F44AC0A815B90542
:103C0000D1F56D907C901197630182E0C80ED11CB4
:103C1000CA14DB0480F1A3014A195B096A0182E03E
:103C2000C80ED11C1296BC9012971396AC91B5E0B9
:103C3000CB16D10440F0B282A38351834083D901D3
:103C40006D937C930AC00E5F1F4FC301800F911FBD
:103C5000F90191838083EB2DFA2FE114F10431F007
:103C6000D7011396FC93EE93129744C0F0935D0432
:103C7000E0935C043FC08D919C91119748175907C0
:103C800008F4AC017D0112960D90BC91A02DB3CF2C
:103C900080915A0490915B0488159905E1F44617C8
:103CA0005707C8F48091200190912101009741F4B9
:103CB0008DB79EB74091240150912501841B950B2F
:103CC000E817F907C8F4F0935B04E0935A04F9018C
:103CD000718360830FC0CB010E948C1C7C01009714
:103CE00059F0A801BE010E94881ECE010E94211D2C
:103CF000C70104C0CE0102C080E090E0CDB7DEB7BE
:103D0000EEE00C94471B81E090E0F8940C94981E30
:103D1000FB01DC0102C001900D9241505040D8F7E8
:103D20000895FB01DC0101900D920020E1F7089558
:103D300011E0CFE2D1E004C0FE010E94641C219694
:0A3D4000C033D107C9F7F894FFCF94
:103D4A000F00F401D0070400045A015A015A015A1B
:103D5A00015A0101FFFFFFFF00E10000000000001F
:103D6A0000005E0480009C01B501CF01EA01070250
:103D7A002602470269028E02B502DE020A0300C168
:103D8A00808100000000000000260C9910DF0C3C26
:103D9A000C470C070DE30C00000000E901B90119FA
:103DAA00028D01B1019D018E010000000092040004
:103DBA000000000D04213E67726D733E6131363E8C
:103DCA006131363E673200443A205374617274207E
:103DDA0062616C616E63696E6721004661696C6538
:103DEA006420746F2064657465637420616E642056
:103DFA00696E697469616C697A6520494D5521005B
:103E0A00443A20636F6D6D616E6420726563656903
:103E1A007665643A20000D0A00443A207374616E94
:103E2A0064557000443A206C6179446F776E00459E
:103E3A003A204572726F7220696E20636F6D6D61F0
:103E4A006E642070617273696E672E20546F6F20E2
:103E5A006D616E79207370616365732E00453A2037
:103E6A004572726F7220696E20636F6D6D616E6448
:103E7A002070617273696E672E20546F6F206665B9
:103E8A00772076616C7565732E00453A204572720B
:103E9A006F7220696E20636F6D6D616E6420706150
:103EAA007273696E672E205369676E20756E6B6E2A
:103EBA006F776E2E00453A204661696C65642074FE
:103ECA006F2064657465637420616E6420696E692D
:103EDA007469616C697A65206D61676E65746F6D6E
:063EEA0065746572210001
:00000001FF
