:100000000C9430010C94DF050C94B8050C94910508
:100010000C946A050C9458010C9458010C944305F7
:100020000C9458010C94CD090C94020D0C94740D91
:100030000C9458010C9458010C9458010C945801DC
:100040000C9458010C9458010C9458010C945801CC
:100050000C9458010C9458010C9458010C94F90418
:100060000C9458010C9458010C9458010C945801AC
:100070000C9458010C9458010C9458010C9458019C
:100080000C9458010C9458010C9458010C9458018C
:100090000C9406060C9458010C9458010C945801C9
:1000A0000C9458010C942F090C945801BC0FBF0FED
:1000B000AE0FB20FB80FE00FE00FE00FC30FC70F86
:1000C000CB0FD10FD50FE00FDB0F00000000230096
:1000D000260029002C002F00214F362054323430C6
:1000E0006C333261622D623E636C38722062722022
:1000F000622D62622D6120612D7220677220672D52
:1001000034206734612D7220677220672D67672D58
:100110006620657220652D7220643420652D346759
:1001200072206D73643864386D6C20642D346434CF
:100130006C33326566672D676C3872206D73643876
:1001400064386D6C20642D3464343C6263642D64C7
:1001500020652D6566672D2067612D61622D206108
:10016000342067720000000000240027002A002DC0
:100170000030000000000200090F0000030401002D
:100180000C00000000000000000000000000000063
:100190000000080B00020202010009040000010235
:1001A00002000005240010010524010101042402BD
:1001B000060524060001070581031000400904011B
:1001C00000020A0000000705020240000007058344
:1001D000024000000403090412010002EF02014082
:1001E000FB1F0023000101020301506F6C6F6C754F
:1001F00020436F72706F726174696F6E00506F6C24
:100200006F6C7520412D5374617220333255340068
:100210000408020110408040102040804080080205
:100220000401804020100201108010204040200076
:10023000000000250028002B002E003100040404DB
:10024000040403040502020202040302020202067D
:10025000060606060604040202020404B21C9414F4
:1002600011241FBECFEFDAE0DEBFCDBF24E0A0EC4B
:10027000B2E001C01D92AC3AB207E1F712E0A0E093
:10028000B1E0E6EEF4E402C005900D92A03CB107A7
:10029000D9F711E0CFE2D1E004C02197FE010E941E
:1002A0003220CE32D107C9F70E94AA140C946622DC
:1002B0000C940000089585ED8093BC008091BC00F3
:1002C00084FDFCCF1092C30308954091F702262FBE
:1002D00030E0240F311D21323105DCF42091C303BD
:1002E0002430C9F4FC0180E090E0861758F4309186
:1002F000F7022191DC01AB52BD4FA30FB11D2C932E
:100300000196F3CF8091F702680F6093F70280E0C7
:10031000089581E0089582E008950895E091C5036D
:100320008091C403E81730F4F0E0EA53FC4F808179
:1003300090E008958FEF9FEF08959091C50380910D
:10034000C403981750F4E92FF0E0EA53FC4F2081E2
:1003500030E09F5F9093C50302C02FEF3FEFC901CC
:1003600008958091C40390E02091C503821B9109F8
:100370000895CF92DF92EF92FF920F931F93CF9346
:10038000DF937C01262F972F8A01809179038823A0
:1003900091F0C62FD72F6E01C40ED51ECC15DD05EA
:1003A00071F06991D701ED91FC910190F081E02D00
:1003B000C7010995F3CF642F822F0E946501C80100
:1003C000DF91CF911F910F91FF90EF90DF90CF9031
:1003D0000895CF93DF931F92CDB7DEB76983209145
:1003E00079032223D1F020919C03203240F021E0B8
:1003F00030E0FC013383228380E090E015C08091DF
:100400007A03E82FF0E0E558FC4F998190838F5FE5
:1004100080937A0380939C0305C061E0CE0101962E
:100420000E94650181E090E00F90DF91CF910895E7
:10043000089580E090E0089580913903E0913A03B7
:10044000F0913B03882311F0849101C080819FEBE0
:10045000980F9A3110F4805E0895803269F42091EB
:100460003A0330913B03A9014F5F5F4F50933B0329
:1004700040933A03232B01F708951F93CF93DF9303
:100480000E941C02C0E0D0E01AE090ED980F9A3074
:10049000B8F41C9F90011D9F300D1124E901C80F75
:1004A000D11D87FDDA95E09780913A0390913B0347
:1004B000019690933B0380933A030E941C02E5CF80
:1004C000CE01DF91CF911F9108952F923F924F92CD
:1004D0005F926F927F928F929F92AF92BF92CF92D4
:1004E000DF92EF92FF920F931F93CF93DF93CDB7DD
:1004F000DEB727970FB6F894DEBF0FBECDBF9F8340
:100500008E831B014D838091D10281111BC081E03C
:100510008093D102109272001092C00094E09093E8
:10052000C10099E09093C2008093C30083E0809360
:10053000BF0088EE8093D1001092BF001092D200CD
:10054000579A7894109213012E813F8137FF05C08E
:100550003F773F832E830AE001C001E088E2089FD5
:10056000802D112490E04E815F814817590708F4CF
:10057000C2C0013039F44131574220F0E0E1F7E2E6
:10058000FF83EE83802E912CA12CB12C8E819F8134
:10059000969587959C0140E050E029833A834B83F0
:1005A0005C834E815F812A01612C712CA50194012D
:1005B00060E072E18AE790E00E94E31F29813A81BE
:1005C0004B815C81620F731F841F951FA3019201F1
:1005D0000E94132069017A01EE24FF2410E01F5FBE
:1005E000C11434E0D306E104F10408F120E032E163
:1005F0004AE750E0012E04C0559547953795279559
:100600000A94D2F7C501B4010E94E31F29813A81FF
:100610004B815C81620F731F841F951FA3019201A0
:100620000E94132069017A01EE24FF24D8CF0A30FA
:1006300049F48E819F8105966AE070E00E94FF1F59
:100640007F836E834E815F81483E83E0580759F077
:100650009101DA010E942C1F28EE33E040E050E0C7
:100660000E9413201901109272008091C100807FB6
:10067000182B1093C100BB27AF2D9E2D8D2D80937D
:10068000BF00C092D1002D81203108F02FE080E121
:1006900090E0821B910904C0F694E794D794C79424
:1006A0008A95D2F78D2D99278093BF00C092D200F2
:1006B0003092D3022092D20289B38FEF89BB84E0BB
:1006C0008093720027960FB6F894DEBF0FBECDBFA1
:1006D000DF91CF911F910F91FF90EF90DF90CF901E
:1006E000BF90AF909F908F907F906F905F904F9052
:1006F0003F902F9008959F838E8344CF2E98269A03
:100700002D98259A2A98229A2998219A80EA8093EE
:10071000800081E18093810080E991E090938700DF
:1007200080938600109289001092880010928B00AE
:1007300010928A00089524982C9A6A98729A6E985A
:10074000769A8098889A81E08093680090E19093EF
:100750006B008BBB80EE93E09093120180931101AC
:10076000EAE6F0E080818F7C80618083EE9A8CB134
:1007700082FB882780F98093CE0293B12091CE022C
:1007800094FB882780F982278093CD021092CC02B7
:100790001092CB021092CA028FB181708093C9026D
:1007A0009CB12091C90296FB882780F9822780930B
:1007B000C8021092C7021092C6021092C502089594
:1007C0004FB141708CB186FB882780F98427209136
:1007D000C8025091C9026091C6027091C702942F5D
:1007E0009227292F30E0982F9527291B3109260FB2
:1007F000371F3093C7022093C6022091C802909100
:10080000C902821729F0491719F091E09093C502A7
:100810008093C8024093C90208958091C00281115B
:1008200005C081E08093C0020E949B03F894209150
:10083000CB023091CC0278948091C3029091C40293
:10084000A901481B590BCA01092E000CAA0BBB0BAE
:1008500080932C0390932D03A0932E03B0932F032A
:100860004091340350913503609136037091370302
:10087000840F951FA61FB71F8093340390933503F1
:10088000A0933603B09337033093C4022093C3027E
:100890008091C002811105C081E08093C0020E9456
:1008A0009B03F8942091C6023091C70278948091FE
:1008B000C1029091C202A901481B590BCA01092E1D
:1008C000000CAA0BBB0B8093280390932903A093E1
:1008D0002A03B0932B034091300350913103609170
:1008E000320370913303840F951FA61FB71F8093A7
:1008F000300390933103A0933203B09333033093CA
:10090000C2022093C10208950F931F93CF93DF93E8
:10091000EC01888581110FC081E088878A85882352
:1009200011F062E001C060E089850E9411108FE043
:1009300090E00197F1F7298530E0F901ED58FE4F7D
:100940008491F901E05FFD4F0491F901E35CFD4FF3
:100950001491112391F081110E94A40FE12FF0E076
:10096000EE0FFF1FE653FF4FA591B491EC91E023EA
:1009700031E009F430E0832F02C080E090E02B8565
:1009800082278170DF91CF911F910F910895CF93AE
:10099000DF93A2EEB0E04C911C92E9EEF0E05081C2
:1009A0001082C0EFD0E06881188220E05D9921605C
:1009B0005599226055985D9A80E18A95F1F739B191
:1009C00021FB0EF0559820FB0EF05D980EF45D9A19
:1009D00021FB0EF4559A1082688350834C9335FBAB
:1009E000882780F990E021E082278170DF91CF9104
:1009F00008951F920F920FB60F9211242F933F93D9
:100A00008F939F93AF93BF9380916A0390916B03F1
:100A1000A0916C03B0916D0330911C0323E0230F70
:100A20002D3720F40196A11DB11D05C026E8230F26
:100A30000296A11DB11D20931C0380936A0390931D
:100A40006B03A0936C03B0936D0380916E03909140
:100A50006F03A0917003B09171030196A11DB11DA8
:100A600080936E0390936F03A0937003B093710310
:100A7000BF91AF919F918F913F912F910F900FBE9A
:100A80000F901F9018951F920F920FB60F9211247E
:100A90002F933F934F935F936F937F938F939F9386
:100AA000AF93BF93EF93FF93E0911101F091120187
:100AB0000995FF91EF91BF91AF919F918F917F9198
:100AC0006F915F914F913F912F910F900FBE0F90BB
:100AD0001F9018951F920F920FB60F9211242F930B
:100AE0003F934F935F936F937F938F939F93AF93B6
:100AF000BF93EF93FF93E0910F01F09110010995DF
:100B0000FF91EF91BF91AF919F918F917F916F91E5
:100B10005F914F913F912F910F900FBE0F901F90BB
:100B200018951F920F920FB60F9211242F933F9397
:100B30004F935F936F937F938F939F93AF93BF93E5
:100B4000EF93FF93E0910D01F0910E010995FF9154
:100B5000EF91BF91AF919F918F917F916F915F9135
:100B60004F913F912F910F900FBE0F901F901895AE
:100B70001F920F920FB60F9211242F933F934F9312
:100B80005F936F937F938F939F93AF93BF93EF93F5
:100B9000FF93E0910B01F0910C010995FF91EF910A
:100BA000BF91AF919F918F917F916F915F914F9185
:100BB0003F912F910F900FBE0F901F9018951F928D
:100BC0000F920FB60F9211242F933F934F935F9381
:100BD0006F937F938F939F93AF93BF93EF93FF9305
:100BE000E0910901F0910A010995FF91EF91BF9100
:100BF000AF919F918F917F916F915F914F913F91B5
:100C00002F910F900FBE0F901F9018951F920F926B
:100C10000FB60F9211242F933F934F935F936F93CF
:100C20007F938F939F93AF93BF93EF93FF938091A5
:100C3000B900887F803609F49CC068F5883209F4D1
:100C40005BC090F4803109F454C038F4882309F46F
:100C5000F6C0883009F44DC0F6C0883109F44CC0A4
:100C6000803209F45DC0EFC0803409F468C048F4F4
:100C7000803309F455C0883309F0E5C08093C1037F
:100C8000D8C0803509F44FC0883509F45DC0883478
:100C900009F0D9C0D6C0883909F4C7C0A8F488378C
:100CA00009F467C038F4883609F463C0803709F462
:100CB00060C0C9C0883809F4B8C0803909F45FC081
:100CC000803809F0C0C05BC0803B09F486C038F4AE
:100CD000803A09F466C0883A09F47FC0B4C0803C09
:100CE00009F4A7C0883C09F4A4C0883B09F48AC071
:100CF000AAC08091BE0310C09091C0038091BF0331
:100D0000981770F5E091C00381E08E0F8093C003C7
:100D1000F0E0E356FC4F80818093BB0085EC86C0F9
:100D20008093C1038EC0E091C00381E08E0F809359
:100D3000C0038091BB00F0E0E356FC4F80839091AC
:100D4000C0038091BF036EC0E091C00381E08E0FAD
:100D50008093C0038091BB00F0E0E356FC4F80839A
:100D60008091C20381116DC081E08093BD0384EA4C
:100D700061C083E08093C30310921B03CFCF8091A7
:100D80001B03803208F051C0E0911B0381E08E0FFD
:100D900080931B038091BB00F0E0E550FD4F808302
:100DA000BDCF85EC8093BC001092C30380911B03E0
:100DB000803230F4E0911B03F0E0E550FD4F1082EB
:100DC00060911B0370E0E091F902F091FA028BEF61
:100DD00092E0099510921B0336C084E08093C30310
:100DE0001092F8021092F702E091F502F091F602EB
:100DF00009958091F702811105C081E08093F70287
:100E00001092D502E091F80281E08E0F8093F802F3
:100E1000F0E0EB52FD4F80818093BB009091F8028F
:100E20008091F702981708F479CF85E88093BC0089
:100E30000AC085EC8093BC001092C30304C01092DA
:100E4000C1030E945B01FF91EF91BF91AF919F9110
:100E50008F917F916F915F914F913F912F910F9063
:100E60000FBE0F901F9018951F93CF93DF93EC0147
:100E7000E881F9810190F081E02D0995182F0E94F9
:100E800031112A81213069F028F02230B9F0233065
:100E9000E1F026C0111124C07C836B8381E08A833A
:100EA00020C0112311F01A821BC02B813C81621BD0
:100EB000730B6F307105A8F082E005C0112389F033
:100EC0007C836B8383E08A830BC01123A9F32B817E
:100ED0003C81621B730B6F30710510F01A8201C0E8
:100EE00010E0812FDF91CF911F9108956F927F9233
:100EF0008F929F92AF92BF92CF92DF92EF92FF922A
:100F00000F931F93CF93DF93909008018091D402A9
:100F1000882321F080913803811188C1772473944C
:100F200070ECA72E7DE5B72EEAE06E2EF4E08F2E52
:100F3000A0EDCA2EA7E0DA2EB4E0EB2EF12C04EFE0
:100F400011E0CFE0D0E00E941C0220913A033091E2
:100F50003B032F5F3F4F30933B0320933A0385368B
:100F600009F45EC07CF5813609F49EC024F58C330B
:100F700009F452C08E3309F44DC0813209F08FC09C
:100F800080920801D0920501C0920401F0920701FD
:100F9000E09206011093030100930201D093010136
:100FA000C09300011092D402909008018091020138
:100FB00090910301C8CF833689F10CF478C000E02A
:100FC00022E077C08D36A9F16CF4873679F15CF1B7
:100FD0008C3609F064C00E943D0290930701809313
:100FE00006014EC08237D1F14CF48F3609F057C05C
:100FF0000E943D02982E80930801A5CF843789F185
:10100000863709F04CC00E943D0290930101809305
:10101000000199CF939497CF9A9495CF00E01FC089
:1010200000E024E046C000E025E043C000E027E007
:1010300040C00E941C028C3619F41092D40204C0E5
:101040007092D4021092380380913A0390913B033E
:10105000019690933B0380933A0375CF01E020E023
:1010600028C00E943D02BC01C5010E94FF1F669E70
:10107000C001679E900D1124909305018093040197
:101080008091040190910501609106017091070122
:101090000E94FF1F709303016093020154CF1092CE
:1010A0003B0310923A03CCC000E029E002C000E00C
:1010B0002BE0122F3CE0939E100D11240E941C0285
:1010C000982F977F933259F480913A0390913B0384
:1010D000019690933B0380933A031F5FEFCF8D32CD
:1010E00069F480913A0390913B03019690933B03FE
:1010F00080933A0311500E941C02F1CFC09102016B
:10110000D09103018153883058F4C0910401D091EB
:1011100005010E943D02BC01CE010E94FF1FEB01B0
:101120007E01F694E7940E941C028E3261F4809155
:101130003A0390913B03019690933B0380933A03CB
:10114000CE0DDF1DEECFFE018091D402882349F041
:10115000CE01969587958093380380913803E81BDC
:10116000F109C0910001D0910101011104C01F3F9C
:1011700011F0C11105C040E0BF0188EE93E046C008
:10118000113130F020EF210F203618F02FE501C08B
:1011900020E0822F6CE00E94F31F682F74EF76032B
:1011A000A0011124BA01620F711D9B016C30710501
:1011B00040F4220F331FD901AA5DBE4F2D913C91FF
:1011C00002C020E030E0873081F0082E02C0220FFC
:1011D000331F0A94E2F7823028F0C90105966AE0CD
:1011E00070E00CC0C90190580CC0C90126E0880FFE
:1011F000991F2A95E1F7029665E070E00E94FF1FB3
:10120000CB014C2FC03108F04FE0BF01DF91CF91EF
:101210001F910F91FF90EF90DF90CF90BF90AF9014
:101220009F908F907F906F900C946502609138032F
:1012300070E040E088EE93E00E946502109238036F
:10124000DF91CF911F910F91FF90EF90DF90CF90A2
:10125000BF90AF909F908F907F906F9008951F9256
:101260000F920FB60F9211242F933F934F935F93DA
:101270006F937F938F939F93AF93BF93EF93FF935E
:101280008091D2029091D3029C0121503109309378
:10129000D3022093D202892B11F510927200789418
:1012A0008091C100807F84608093C10083E080933F
:1012B000BF0088EE8093D1001092BF001092D20040
:1012C00081E08093130180913A0390913B03892B35
:1012D00031F08091D002811102C00E947607FF9107
:1012E000EF91BF91AF919F918F917F916F915F919E
:1012F0004F913F912F910F900FBE0F901F90189517
:101300000F931F93CF93DF938C01EB018091CF025A
:10131000811105C081E08093CF020E947E0317FFF8
:1013200005C011950195110981E001C080E00D32E1
:1013300091E0190714F00CE211E010938B00009378
:101340008A00882311F02A9A01C02A98229A809153
:10135000CF02811105C081E08093CF020E947E03FD
:10136000D7FF05C0D195C195D10981E001C080E0CA
:10137000CD3291E0D90714F0CCE2D1E0D0938900CE
:10138000C0938800882311F0299A01C02998219AD6
:10139000DF91CF911F910F9108951F920F920FB679
:1013A0000F9211242F933F934F935F936F937F93EB
:1013B0008F939F938CB190E09595879595958795A0
:1013C000482F417023B130E054E0359527955A9568
:1013D000E1F78227932781702091CD025091CE02B0
:1013E0006091CB027091CC02942F9227292F30E08C
:1013F000982F9527291B3109260F371F3093CC02D0
:101400002093CB022091CD029091CE02821729F039
:10141000491719F091E09093CA028093CD0240934E
:10142000CE029F918F917F916F915F914F913F91EC
:101430002F910F900FBE0F901F901895811102C031
:10144000289A01C02898209A08950F931F930E940C
:1014500063120E94E5116091900470919104CB0198
:10146000770FAA0BBB0B0091200310912103209151
:10147000220330912303BC01CD01601B710B820B51
:10148000930B2DE130E040E050E00E9413202093C8
:101490004003309341034093420350934303AAE037
:1014A000B0E00E94EA1E00913C0310913D032091A0
:1014B0003E0330913F03DC01CB01800F911FA21F3F
:1014C000B31F80933C0390933D03A0933E03B093DE
:1014D0003F031F910F910C940D040F931F93CF9313
:1014E000DF9360E070E080E090E00E94800910925D
:1014F000720085E791E090933B0380933A0310924A
:101500003903109238030E9476075D98559A81E05E
:101510000E941E0A479A3F9A809113018823E1F3A3
:1015200080913A0390913B03892BB1F7C0E0D0E062
:101530000E940D0480913403909135032091300373
:1015400030913103821B930BBC01660F771F6C1B1C
:101550007D0B919581959109880F991F8C1B9D0B8F
:101560000E94800962E070E080E090E00E947210CA
:101570002196CC3221E0D207D9F6C2E3D0E00AE0CE
:1015800016EF0E940D0420913403309135038091B1
:10159000300390913103281B390B029FB001039F48
:1015A000700D11246C5271401203C001139F900DF5
:1015B00011248C5291400E94800961E070E080E02B
:1015C00090E00E9472102197E1F66CE271E08CE2EB
:1015D00091E00E948009CEE16AE070E080E090E056
:1015E0000E9472100E94250A80913C0390913D0355
:1015F000A0913E03B0913F038035934CA105B10506
:101600002CF487E891E00E94F91202C0C15021F742
:101610008CE291E0A0E0B0E0809324039093250356
:10162000A0932603B093270310923403109235033E
:101630001092360310923703109230031092310348
:101640001092320310923303DF91CF911F910F91CB
:101650000895409174035091750320917203309165
:10166000730342175307B4F49091E8009570E1F3C7
:101670009091E80092FD19C08093F100809174036D
:101680009091750301968F739927892B19F48EEF2A
:101690008093E80080917403909175030196909374
:1016A00075038093740381E0089580E00895DF92CC
:1016B000EF92FF920F931F93CF93DF93D82E8A015F
:1016C0007B01E40EF51EEB01CE15DF0571F0D7FEB0
:1016D00003C0FE01849101C088810E94290B2196DC
:1016E0008111F2CF8FEF9FEF01C0C801DF91CF9141
:1016F0001F910F91FF90EF90DF900895615030F0AF
:101700002091F100FC0120830196F8CF289884E60F
:10171000809377030895CF92DF92EF92FF920F9319
:101720001F93CF93DF936C017A018B01C0E0D0E06F
:10173000CE15DF0589F0D8016D918D01D601ED91AF
:10174000FC910190F081E02DC6010995892B11F4DF
:101750007E0102C02196ECCFC701DF91CF911F918E
:101760000F91FF90EF90DF90CF900895CF93DF938C
:101770001F92CDB7DEB76983DC01ED91FC91028049
:10178000F381E02D41E050E0BE016F5F7F4F09958E
:101790000F90DF91CF91089583E08093E9008091CD
:1017A000F200882319F08AE38093E8000895FC0191
:1017B0008485958597FD0BC09FB7F89482E0809350
:1017C000E9008091F2009FBF90E0019608959FB7D5
:1017D000F89482E08093E9008091F2009FBF90E04E
:1017E00008950E9451220F931F93CF93DF93EC0132
:1017F00088819981009729F02A813B812617370734
:1018000088F48B016F5F7F4F0E948721009761F002
:10181000998388831B830A832C813D81232B11F4B8
:10182000FC01108281E001C080E0DF91CF911F9127
:101830000F9108950F931F93CF93DF931F92CDB70E
:10184000DEB782E0898342E450E062E971E080E83B
:101850000E94570B0E948014DC0112960D911C917E
:1018600013970115110569F0D801ED91FC910280E3
:10187000F381E02DBE016F5F7F4FC801099597FF8F
:1018800007C089810F90DF91CF911F910F9108952B
:10189000F80100851185E5CF0E946F1490E008954E
:1018A0000F931F93CF93DF931F92CDB7DEB78C01B9
:1018B000FC018485958597FF0EC0CE0101960E949C
:1018C0004514019719F4298130E002C02FEF3FEF52
:1018D000F80135872487F801848595850F90DF917D
:1018E000CF911F910F910895CF93DF931F92CDB7A2
:1018F000DEB7FC018485958597FD05C02FEF3FEF8E
:10190000358724870BC0CE0101960E9445140197AC
:1019100019F4898190E002C08FEF9FEF0F90DF9163
:10192000CF910895EF92FF920F931F93CF93DF9380
:1019300000D0CDB7DEB78C0169831A82FC01E48048
:10194000F580FFEFEF1AFF0AB7010E94F30B88231F
:1019500081F0F8012081318184819581BE016F5F22
:101960007F4F820F931F0E945F22F801F582E4826D
:1019700081E00F900F90DF91CF911F910F91FF9019
:10198000EF900895EF92FF920F931F93CF93DF9301
:10199000EC017B018A01BA010E94F30B2881398195
:1019A00081110DC02115310519F0C9010E94EF20E8
:1019B000198218821D821C821B821A8206C01D8316
:1019C0000C83B701C9010E945F22CE01DF91CF9144
:1019D0001F910F91FF90EF900895FC0111821082EA
:1019E00013821282158214826115710551F0FB0178
:1019F00001900020E9F73197AF01461B570B0C947B
:101A0000C20C08951F920F920FB60F9211248F935C
:101A10009F938091E1009091E100937F9093E1008A
:101A200083FF0FC01092E90091E09093EB001092B9
:101A3000EC0092E39093ED001092780398E090937D
:101A4000F00082FF20C093E09093E9009091F200B3
:101A5000992319F09AE39093E800909176039923E3
:101A600039F090917603915090937603992389F100
:101A700090917703992339F0909177039150909347
:101A80007703992341F184FF10C08091E2008E7E9C
:101A900081608093E2008091E1008F7E8093E1007D
:101AA00080911E038E7E806111C080FF16C08091E0
:101AB000E2008E7E80618093E2008091E1008E7E64
:101AC0008093E10080911E038E7E816080931E03CF
:101AD00004C05D9ACDCF289AD6CF9F918F910F9059
:101AE0000FBE0F901F9018951F920F920FB60F9276
:101AF0001124CF92DF92EF92FF920F931F932F93B7
:101B00003F934F935F936F937F938F939F93AF9385
:101B1000BF93EF93FF93CF93DF93CDB7DEB76C976F
:101B2000DEBFCDBF1092E9008091E80083FFEDC1D8
:101B300068E0CE0145960E947E0B82EF8093E8001C
:101B40008D8987FF05C09091E80090FFFCCF03C00E
:101B50009EEF9093E800982F907609F0C6C09E897A
:101B60002F89188D91110CC0803829F480911F03A2
:101B70008093F10002C01092F1001092F10048C170
:101B8000422F50E0512B913051F4811141C141302D
:101B9000510509F03DC180911F038D7F0BC093302B
:101BA00061F4811135C14130510509F031C1809195
:101BB0001F03826080931F032BC1953041F48091F5
:101BC000E80080FFFCCF20682093E30021C196301D
:101BD00009F05FC0EB8CFC8C1092E9001092750349
:101BE00010927403123091F51092730310927203E5
:101BF0000E941A0C99E0BE016F5F7F4FDB01E92F55
:101C00001D92EA95E9F799831A8391E09E8390EA01
:101C100098879AEF99872091740330917503275F15
:101C20003F4F3C832B838D831092E9001092750304
:101C300010927403F0927303E092720349E050E053
:101C400080E00E94570B0E941A0CE2C0F0927303CE
:101C5000E09272030E948014DC011296ED90FC90D9
:101C60001397E114F10409F4C0C0D701ED91FC9180
:101C70000480F581E02DBE016B5E7F4FC7010995A1
:101C8000009719F00CF0C4C0C7C0F701E084F184DC
:101C9000E8CF973009F4C0C0983021F481E08093F8
:101CA000F100B6C0993009F0B3C0837009F0B4C038
:101CB000EFE3F1E081E021E036E39081992361F0E8
:101CC0008093E9002093EB0091919093EC00309386
:101CD000ED008F5F873089F78EE78093EA001092DE
:101CE000EA008F898093780393C08B8D9C8D10922E
:101CF000E90010927503109274039093730380931C
:101D00007203898D811156C08E899D89913A59F44B
:101D1000813209F081C047E050E068E171E080E085
:101D20000E94570B75C0913209F076C0833289F456
:101D3000888D90E0982F88272F89822BA0E0B0E033
:101D40008093140190931501A0931601B09317018D
:101D50005FC0803269F48091E80082FFFCCF67E0C9
:101D600088E191E00E947E0B8BEF8093E80006C033
:101D7000823209F04DC08F8980931F0180911D032D
:101D8000882319F0EEEFFAE002C0E0E0F8E080917D
:101D9000180190911901A0911A01B0911B01803B8B
:101DA0009440A105B10509F07BC080911F0180FF1F
:101DB00093C076C00E948014DC0112960D911C9194
:101DC00013970115110541F1D801ED91FC91019096
:101DD000F081E02DBE016B5E7F4FC8010995811136
:101DE00017C0F80100851185ECCF113009F44EC001
:101DF000133091F48F89882309F445C0823081F42F
:101E000040E862E18DEF91E00E94751C882321F08B
:101E10008EEF8093E80079C081E28093EB0075C07B
:101E2000813029F440E862E18AEE91E0EDCF833021
:101E300099F70E948014DC011296ED90FC901397A4
:101E40008E010F5F1F4F6801E114F10479F0D70193
:101E5000ED91FC910680F781E02DB801C70109954D
:101E6000080F111DF701E084F184EECFD8011C9218
:101E7000F60101900020E9F73197BF016C197D0947
:101E800040E0C601C1CF64ED71E002C068ED71E0D1
:101E90006115710509F2FB01449150E080E840CFE3
:101EA0000FB6F894A89580916000886180936000D7
:101EB000109260000FBEA895EE3F2AE0F20739F0BD
:101EC0008091FE0A9091FF0A91838083A1CF1092A6
:101ED000FF0A1092FE0A9CCFEE3F8AE0F80731F02D
:101EE000808191819093FF0A8093FE0A87E797E7AC
:101EF000918380839BE088E10FB6F894A895809346
:101F000060000FBE9093600083CF6C960FB6F8947C
:101F1000DEBF0FBECDBFDF91CF91FF91EF91BF919B
:101F2000AF919F918F917F916F915F914F913F9171
:101F30002F911F910F91FF90EF90DF90CF900F9016
:101F40000FBE0F901F90189590E0FC013197EF3075
:101F5000F105B0F5EA5AFF4F0C94322080918000D1
:101F60008F7703C0809180008F7D809380000895DB
:101F700080918000877FF9CF84B58F7702C084B5C8
:101F80008F7D84BD0895809190008F7707C08091E8
:101F900090008F7D03C080919000877F8093900098
:101FA00008958091C0008F7703C08091C0008F7D1D
:101FB0008093C00008958091C200877F8093C20003
:101FC00008951F93CF93DF93282F30E0F901ED5848
:101FD000FE4F8491F901E05FFD4FD491F901E35C7C
:101FE000FD4FC491CC23C9F0162F81110E94A40F7C
:101FF000EC2FF0E0EE0FFF1FE15DFD4FA591B491D6
:102000008FB7F894111105C09C91ED2FE095E9234D
:1020100002C0EC91ED2BEC938FBFDF91CF911F911C
:102020000895CF93DF9390E0FC01E05FFD4F249192
:10203000FC01E35CFD4F8491882361F190E0880FFF
:10204000991FFC01EB59FE4FC591D491FC01E15D54
:10205000FD4FA591B491611109C09FB7F894888193
:10206000209582238883EC912E230BC0623061F48B
:102070009FB7F8943881822F809583238883EC91D1
:102080002E2B2C939FBF06C08FB7F894E8812E2B80
:1020900028838FBFDF91CF9108953FB7F894809147
:1020A0006E0390916F03A0917003B091710326B5F8
:1020B000A89B05C02F3F19F00196A11DB11D3FBF80
:1020C000BA2FA92F982F8827820F911DA11DB11D0E
:1020D000BC01CD0142E0660F771F881F991F4A950A
:1020E000D1F708958F929F92AF92BF92CF92DF92D5
:1020F000EF92FF926B017C010E944D104B015C013D
:10210000C114D104E104F104F1F00E944D10DC018E
:10211000CB0188199909AA09BB09883E9340A105FA
:10212000B10570F321E0C21AD108E108F10888EE88
:10213000880E83E0981EA11CB11CC114D104E104D7
:10214000F10419F7DDCFFF90EF90DF90CF90BF90B3
:10215000AF909F908F9008958F929F92AF92BF9271
:10216000CF92DF92EF92FF920F931F93CF93DF9363
:102170005C016B017A0180911F01882309F45BC027
:1021800080917803882309F456C080911E0380FF54
:1021900005C08091E00082608093E000E70110E0DC
:1021A0000AEF83E0882E9AE3992E2097D9F10E94B6
:1021B0006F1481110AC0015009F43DC061E070E064
:1021C00080E090E00E947210F0CF282F30E0C2171C
:1021D000D3070CF48C2F4FB7F8948092E9009091BC
:1021E000E80095FF1DC0282F30E0C21BD30BF6017D
:1021F000982F915020F081918093F100FACFC20E78
:10220000D31E112319F09092E80009C08091E800D4
:1022100085FD06C09092E80011E0209709F010E0DB
:102220004FBFC3CF1111C3CF5D9884E6809376036F
:102230001E141F0444F081E090E0F5019383828333
:1022400080E090E001C0C701DF91CF911F910F9115
:10225000FF90EF90DF90CF90BF90AF909F908F90C6
:1022600008952FB7F89460916A0370916B03809181
:102270006C0390916D032FBF08959091C30391114A
:10228000FCCF613208F060E291E09093C303909339
:10229000C2032FEF2093C1031092C003260F209397
:1022A000BF039093BE039091BE03880F892B809348
:1022B000BE038091BD03813061F41092BD03809113
:1022C000BE038093BB008091BC0083FDF8CF85ECFA
:1022D00001C085EE8093BC008091C3038130E1F39F
:1022E0008091C003861710F46091C003ADE9B3E09C
:1022F00026EC33E0F9018E2F821B861718F48D919E
:102300008193F9CF1092C5036093C403862F08957B
:1023100020919C0390919B03213208F04AC0809148
:10232000C3038111FCCF32E03093C30331E030931B
:10233000C2033FEF3093C1031092C0032093BF0349
:10234000ABE7B3E04DE953E0FA013E2F341B3217FF
:1023500018F43D913193F9CF1092BE032091BE0342
:10236000990F922B9093BE039091BD03913061F42D
:102370001092BD039091BE039093BB009091BC005E
:1023800093FDF8CF95EC01C095EE9093BC00909131
:10239000C3039230E1F39091C1039F3F79F08091A4
:1023A000C103803241F08091C103803331F084E079
:1023B00005C081E003C082E001C083E010927A038F
:1023C00010929C03109279030895BF92CF92DF92EE
:1023D000EF92FF920F931F93CF93DF938091970417
:1023E00091E09093790380939B0310927A0310926B
:1023F0009C0362E286E394E00E94E9010E94881156
:1024000066E0809197040E943D110E9431117B018A
:102410008091C40390E02091C503821B9109069727
:10242000ACF48091980490919904892B89F30E94CF
:1024300031116E197F098091980490919904861743
:10244000970730F781E080939A0433C086E394E0E5
:102450000E949D01C82E86E394E00E949D01B82E43
:1024600086E394E00E949D01E82E86E394E00E94BA
:102470009D01D82E86E394E00E949D01F82E86E30C
:1024800094E00E949D011B2D00E00C2910938F0405
:1024900000938E04DD2D20E0C22FCE29D09391042D
:1024A000C0939004982F88278F299093930480934A
:1024B0009204DF91CF911F910F91FF90EF90DF90E9
:1024C000CF90BF900895BF92CF92DF92EF92FF928C
:1024D0000F931F93CF93DF938091970491E0909394
:1024E000790380939B0310927A0310929C0368E215
:1024F00086E394E00E94E9010E94881166E08091E1
:1025000097040E943D110E9431117B018091C40308
:1025100090E02091C503821B91090697ACF480914D
:10252000980490919904892B89F30E9431116E19B6
:102530007F0980919804909199048617970730F746
:1025400081E080939A0433C086E394E00E949D0169
:10255000C82E86E394E00E949D01B82E86E394E0A5
:102560000E949D01E82E86E394E00E949D01D82EF2
:1025700086E394E00E949D01F82E86E394E00E9499
:102580009D011B2D00E00C29109389040093880401
:10259000DD2D20E0C22FCE29D0938B04C0938A0476
:1025A000982F88278F2990938D0480938C04DF9136
:1025B000CF911F910F91FF90EF90DF90CF90BF9040
:1025C0000895BC01009791F0FC0101900020E9F70B
:1025D0003197AF01481B590BE091E603F091E703F7
:1025E0000280F381E02D86EE93E0099480E090E094
:1025F0000895CF93DF930E94E112EC0189ED91E001
:102600000E94E1128C0F9D1FDF91CF910895CF930F
:10261000C82F81E080937903C0939B0310927A03C3
:1026200010929C036FE086E394E00E94E9010E940F
:10263000881181110FC061E08C2F0E943D11909193
:10264000C4038091C503981729F086E394E0CF91E5
:102650000C949D018FEF9FEFCF9108951F93CF931F
:10266000DF93162FCBE7D4E0998521E020937903FF
:1026700090939B0310927A0310929C03682F86E339
:1026800094E00E94E901612F86E394E00E94E90151
:102690000E9488118E83DF91CF911F910895CF936F
:1026A000C82F81E080937903C0939B0310927A0333
:1026B00010929C036FE086E394E00E94E9010E947F
:1026C000881181110FC061E08C2F0E943D11909103
:1026D000C4038091C503981729F086E394E0CF9155
:1026E0000C949D018FEF9FEFCF9108950F931F934F
:1026F000CF93DF93CDB7DEB729970FB6F894DEBF3F
:102700000FBECDBF0E944D1000915604109157048A
:102710002091580430915904DC01CB01801B910BAE
:10272000A20BB30B8C329140A105B10558F3F8947C
:1027300080914C0490914D049A838983E0915004D8
:10274000F0915104DF0111968081898790914804AE
:10275000E0915A04F0915B0480915C04992309F4A0
:102760002EC09081982B98879081809589238F83A4
:102770008F818C8388E08B8358856F8149853B816D
:102780002C8189819A81508347FD252F3A9520839A
:10279000262F39F0441F00C000006083000000C0F5
:1027A000F2CF38E04D9160830000019761F7F0931C
:1027B0005B04E0935A0449873B832C8338C09081A3
:1027C000982B98879081809589238F838F818E8322
:1027D00088E08D8358856F8149853D812E8189816F
:1027E0009A81508347FD252F00C000C0208300C080
:1027F00000C000C000C000C060830000262F3A95D2
:1028000041F0441F000000C000C000C000C000C074
:10281000E8CF38E04D9100C0608300C0019709F710
:10282000F0935B04E0935A0449873D832E839A8397
:10283000898378940E944D106093560470935704D6
:10284000809358049093590429960FB6F894DEBFEC
:102850000FBECDBFDF91CF911F910F9108952091B1
:102860004604309147048217930738F420914204BC
:10287000309143042115310529F41092A70487EA09
:1028800094E00895820F931F0895FC0180917803CE
:10289000811103C08FEF9FEF08959FB7F89482E0F6
:1028A0008093E9002091F20030E01216130614F430
:1028B00021E030E02115310559F0289884E6809315
:1028C00077038091F10080838091F200882319F0D2
:1028D0009FBFC90108958BE68093E800F9CF2FB719
:1028E000F89483E08093E9009091E800892F80724A
:1028F00095FF04C09091F20080E4891B2FBF0895DA
:1029000080919F0481110DC082E080939B0484E03C
:1029100080939C0410929E0410929D0481E0809309
:102920009F048BE994E008958091420490914304C0
:102930000E94EF208091500490915104009711F073
:102940000E94EF2080914E0487FD03C060E00C944C
:1029500011100895CF93DF93CDB7DEB7AE970FB6C2
:10296000F894DEBF0FBECDBF789484B5826084BD7D
:1029700084B5816084BD85B5826085BD85B5816083
:1029800085BD80916E00816080936E001092810001
:1029900080918100826080938100809181008160BC
:1029A000809381008091800081608093800080917D
:1029B000910082608093910080919100816080936A
:1029C0009100809190008160809390008091C1007F
:1029D00084608093C1008091C10082608093C100B7
:1029E0008091C10081608093C1008091C3008160AB
:1029F0008093C3008091C00082608093C00080916A
:102A0000C20081608093C20080917A0084608093CC
:102A10007A0080917A00826080937A0080917A00B7
:102A2000816080937A0080917A00806880937A0038
:102A30001092780310921F0310921E038091D7000A
:102A400081608093D70080EA8093D80089B5806147
:102A500089BD89B5826089BD09B400FEFDCF61E002
:102A600070E080E090E00E9472108091D8008F7C2E
:102A700080618093D8008091E000807F8093E000A7
:102A80008091E1008E7E8093E1008DE08093E200F2
:102A9000559A209AEEEFFFE7859194918B3F9C4DDC
:102AA00019F481E080931D0347983F9A81E00E94CA
:102AB0001E0A1092C5031092C40310927A0310925A
:102AC0009C031092C30381E08093C2031092BD0364
:102AD00061E082E00E94E10F61E083E00E94E10F8B
:102AE0008091B9008E7F8093B9008091B9008D7F6D
:102AF0008093B90088E48093B80085E48093BC009B
:102B00008BE60E9407138936910589F08AE60E94B8
:102B100007138936910571F08BE991E00E94F91253
:102B200068EC70E080E090E00E947210F5CF81E0E8
:102B300090E002C080E090E010929604109295041C
:102B4000019709F456C08AE68093970460E880E113
:102B50000E94921D60E881E10E94921D64E082E182
:102B60000E94921D68E581E10E94921D68EE73E06B
:102B700080E090E00E94721004E610E0C12CD12C9D
:102B800076010E9463120E94E51180919004909159
:102B90009104092E000CAA0BBB0BC80ED91EEA1E0D
:102BA000FB1E61E070E080E090E00E947210015036
:102BB000110939F7C701B60124E630E040E050E0E2
:102BC0000E9413202093200330932103409322037B
:102BD000509323038EE10E944F13CD9761F08CE157
:102BE0000E944F13CD9751F08EE892E00E94F912A7
:102BF000FFCF8BE6A9CF81E090E002C080E090E0BB
:102C00001092830410928204019709F46CC68CE13F
:102C10008093840460E780E20E942E1360E081E2EA
:102C20000E942E1360E082E20E942E136CE083E289
:102C30000E942E1380E00E941E0A8FEF9FEF909358
:102C4000F3038093F20380914E0487FD08C061E096
:102C50000E94111060E080914E040E94E10F81E01B
:102C6000809349048091500490915104892B11F074
:102C70000E9476131E0113E1210E311C8E01075EA6
:102C80001F4F1A8F098F0E94311120915C033091E0
:102C90005D03AB01421B530B4A30510508F4EEC1F2
:102CA00021E04C30510508F420E020936703709335
:102CB0005D0360935C030E94250A40916303509179
:102CC0006403609165037091660380913403909171
:102CD0003503A0913603B09137036C017D01C41A0E
:102CE000D50AE60AF70ACF8ED8A2E9A2FAA2C092C4
:102CF0003403D0923503E0923603F092370380918B
:102D00005F0390916003A0916103B0916203009111
:102D10003003109131032091320330913303680165
:102D20007901C81AD90AEA0AFB0ACBA2DCA2EDA2F1
:102D3000FEA2C0923003D0923103E0923203F092AF
:102D4000330340902C0350902D0360902E0370901D
:102D50002F03441A550A660A770A40922C035092B0
:102D60002D0360922E0370922F03409128035091FF
:102D7000290360912A0370912B037A018B01E81AD1
:102D8000F90A0A0B1B0BEFA2F8A609A71AA7E092F3
:102D90002803F092290300932A0310932B038091B8
:102DA000880490918904883E03E0900744F4809160
:102DB0008C0490918D04181619065CF004C08C34B4
:102DC0009D410CF04EC080918C0490918D0497FF32
:102DD00048C01092240310922503109226031092EB
:102DE0002703109234031092350310923603109289
:102DF0003703109230031092310310923203109275
:102E0000330360E070E080E090E00E9480098091F0
:102E1000400390914103A0914203B0914303019676
:102E2000A11DB11D0397A105B105C0F480918C04CB
:102E300090918D04181619062CF480E898E3A1E00F
:102E4000B0E004C080E897ECAEEFBFEF80933C03A6
:102E500090933D03A0933E03B0933F0310925E0313
:102E60000DC120913C0330913D0340913E035091B0
:102E70003F03A7EEB3E00E94EA1E28EE33E040E0F5
:102E800050E00E9413202B8F3C8F4D8F5E8F20933C
:102E90003C0330933D0340933E0350933F038090A7
:102EA000400390904103A0904203B090430380916F
:102EB000580390915903A0915A03B0915B03CF8CB2
:102EC000D8A0E9A0FAA00BA11CA12DA13EA1C00E83
:102ED000D11EE21EF31E8C0D9D1DAE1DBF1D8093E5
:102EE000580390935903A0935A03B0935B03A2E84D
:102EF000B0E0A50194010E94EA1E2B8D3C8D4D8D02
:102F00005E8D260F371F481F591FA9E0B0E00E94B1
:102F1000EA1E6B8F7C8F8D8F9E8F6093540370930E
:102F200055038093560390935703A4EFB1E0A50196
:102F300094010E94EA1E4B015C0160935003709360
:102F400051038093520390935303AAE0B0E0A7018A
:102F500096010E94EA1E6B017C0160934C03709302
:102F60004D0380934E0390934F03109248031092A9
:102F7000490310924A0310924B032FA138A549A58B
:102F80005AA5240D351D461D571DA4ECB9E00E941D
:102F9000EA1E609344037093450380934603909325
:102FA00047030B8D1C8D2D8D3E8D800E911EA21E14
:102FB000B31EC80CD91CEA1CFB1C6C0D7D1D8E1D9C
:102FC0009F1D20ED30E240E050E00E9413208091F0
:102FD000240390912503A0912603B0912703820F2B
:102FE000931FA41FB51F8D3211E09107A105B105F4
:102FF00024F08CE291E0A0E0B0E080932403909371
:103000002503A0932603B093270380912403909176
:103010002503A0912603B0912703843D9E4FAF4F17
:10302000BF4F64F484ED9EEFAFEFBFEF80932403B6
:1030300090932503A0932603B09327032F8D38A1E7
:103040004BA15CA1241B350B809124039091250397
:10305000B90137FF02C06F5F7F4F75956795680FA5
:10306000791F37FF02C02F5F3F4F35952795821B91
:10307000930B0E94800981E080935E030E943111CE
:103080006B017C0180916504909166049701860133
:10309000081B190B210931090531110521053105DD
:1030A00008F48EC080915D0490915E04A0915F044D
:1030B000B0916004A7019601281B390B4A0B5B0BEA
:1030C000253631054105510508F476C08091840408
:1030D00091E09093790380939B0310927A0310926E
:1030E0009C0368EA86E394E00E94E9010E9488114B
:1030F00066E0809184040E943D110E9431118B0191
:103100008091C40390E02091C503821B910906972A
:10311000ACF48091850490918604892B89F30E94F8
:103120003111601B710B8091850490918604861784
:10313000970730F781E08093870436C086E394E0F8
:103140000E949D01A82E86E394E00E949D01982E86
:1031500086E394E00E949D01082F86E394E00E949C
:103160009D01B82E86E394E00E949D01182F86E30E
:1031700094E00E949D019CA61BA62BA53CA52A2994
:1031800030937C0420937B04BEA61DA62DA53EA5EE
:10319000202B30937E0420937D04982F8827812B49
:1031A0009093800480937F04C0925D04D0925E046B
:1031B000E0925F04F0926004D0926604C0926504CD
:1031C00016E086EE93E00E94D70B181619060CF055
:1031D0007DC286EE93E00E94740C082F682F82E473
:1031E00094E00E94920C0A3061F783EC91E00E9417
:1031F000E112E091E603F091E7034091460450911B
:10320000470460914204709143040280F381E02DF1
:1032100086EE93E0099589ED91E00E94E11280E04D
:1032200090E00E942F14DC018C918335A9F48091E9
:103230003C0390913D03A0913E03B0913F03813543
:10324000934CA105B1050CF438C28CED91E00E94BD
:10325000F9120E946D0A31C280E090E00E942F14A2
:10326000DC018C918C3411F587EE91E00E94F9120B
:1032700080915E03882309F420C26CE97FEF8CE91A
:103280009FEF0E9480096CE271E080E090E00E9474
:10329000721060E070E080E090E00E94800960EDD4
:1032A00077E080E090E00E94721007C280E090E03A
:1032B0000E942F14FC018081833409F0E6C09E0136
:1032C0002F5F3F4F690179016BED71E0C7010E94EB
:1032D000ED0C56E0E50EF11CE214F304A9F7E2E070
:1032E000AE2EB12CE12CF12C809146049091470434
:1032F000A816B90638F4C5010E942F14DC016C91A0
:103300006A3039F4B2E0EB16F104A4F58BE492E0F4
:103310002AC0603221F4EFEFEE1AFE0A19C0862FA0
:10332000062E000C990BC0970A9778F41E9DC001D9
:103330001F9D900D112444244394512C4C0E5D1E6E
:10334000840D951D0E94920C03C082EF91E00BC08A
:1033500003E0E016F1041CF08DE192E004C02FEFD1
:10336000A21AB20AC1CF0E94F9128D859E850E94D1
:10337000EF2091C17101D6018D919C91009719F0B8
:103380000E94B31D03C060E070E0CB01F7016193C0
:1033900071937F01F6E0CF0ED11C498C5A8CE41456
:1033A000F50449F74F89588D8D889E886B887C88F5
:1033B000E42EB82CA62C772499245527A0E0B0E061
:1033C0001C8E1B8E60E070E020914A0430914B040B
:1033D00080915004909151046217730708F04FC018
:1033E00020914F042223C9F030E0629E6001639E69
:1033F000D00C729ED00C1124FD2C829E6001839E05
:10340000D00C929ED00C11240D2D429F6001439F41
:10341000D00C529FD00C112403C0DE2C0B2DFA2CA3
:103420002091550430915204231305C02B8D3C8DFF
:10343000820F931F06C08A0F9B1FFC01E20FF11D34
:103440001082209152042C01420E511CF201F08294
:10345000209153042C01420E511CF2010083209153
:103460005404820F911DFC01D0826F5F7F4F2B8D22
:103470003C8D2D5F3F4F3C8F2B8F1496A5CF892B12
:1034800009F473CF0E94761370CF80E090E00E9421
:103490002F14DC018C91863509F00BC16BED71E0C6
:1034A000CE0101960E94ED0C6BED71E0CE01079606
:1034B0000E94ED0C62E0E62EF12CC12CD12C809103
:1034C000460490914704E816F90638F4C7010E94B3
:1034D0002F14FC0160816A3019F4CD28C9F5E4C0CD
:1034E000603239F4CA94CD28F9F0CC24C394D12C9D
:1034F0002BC0862F062E000C990BC0970A97B8F0A8
:103500006D3209F027C11C9DF0011D9DF00D1124A5
:1035100044244394512C4C0E5D1EE40DF51D848112
:103520009581892B21F016C18DE192E0BFC01C9DD1
:10353000C0011D9D900D1124A1E0B0E0AC0FBD1F96
:103540008A0F9B1F0E94920C0FEFE01AF00AB7CF70
:1035500089819A81009719F00E94B31D03C060E031
:1035600070E0CB017B018F819885009729F00E9444
:10357000B31D4B015C0103C0812C912C5401B70198
:10358000FF0C880B990B0E94F11D20E030E048EA07
:1035900052E40E942C1E20E030E040E451E40E94FE
:1035A0002C1E20E030E040E850E40E942C1E20E079
:1035B00030E040EC50E40E943B1F20E030E04AE75E
:1035C00054E40E943B1F20E030E040EA51E40E94B6
:1035D0003B1F0E94AD1FE62E660FFF08B401990C39
:1035E000880B990B0E94F11D20E030E048EA52E47C
:1035F0000E942C1E20E030E040E451E40E942C1E8A
:1036000020E030E040E85EE30E942C1E20E030E045
:103610004AE754E40E943B1F20E030E040EE50E4D3
:103620000E942C1E20E030E040EA50E40E943B1F44
:103630000E94AD1F062E000C770B81E0809369037A
:10364000882799278E199F09861B970B092E000C36
:10365000AA0BBB0B8093630390936403A093650351
:10366000B0936603C701861B970B092E000CAA0BAB
:10367000BB0B80935F0390936003A0936103B093AF
:1036800062030E943111609361047093620480931D
:103690006304909364048F8198850E94EF20898150
:1036A0009A810E94EF2009C08BE492E00E94F912F7
:1036B000F2CF88E792E00E94F91240E050E06BED13
:1036C00071E082E494E00E94C20C7BCD0E94311133
:1036D00000916104109162042091630430916404AC
:1036E000DC01CB01801B910BA20BB30B893E9340F5
:1036F000A105B10530F180916903882311F1109281
:10370000690310923403109235031092360310921D
:10371000370310923003109231031092320310924B
:1037200033031092630310926403109265031092A6
:10373000660310925F03109260031092610310926F
:10374000620380915E03882341F0809168038111B8
:1037500075C003C082EF91E0A9CF109272008091F2
:10376000C100807F84608093C10083E08093BF00AC
:1037700088EE8093D1001092BF001092D20081E0B9
:103780008093130110923B0310923A038FE694E06A
:103790000E9434078823A1F01092680310926303FB
:1037A00010926403109265031092660310925F03F7
:1037B0001092600310926103109262030E946D0ADE
:1037C00087E694E00E943407882329F081E0809303
:1037D00068030E946D0A809167030E941E0A20916F
:1037E0004003309141034091420350914303A2E8CA
:1037F000B0E00E94EA1E00913C0310913D0320912D
:103800003E0330913F03DC01CB01801B910BA20BE7
:10381000B30B181619061A061B0624F4479A3F9A8A
:103820005D9A03C047983F9A5D98559A80E090E072
:10383000892B09F428CA0E94000020CA8091130134
:10384000882331F080913A0390913B03892BD9F181
:103850000E9431117F716C3627E0720738F06115D4
:1038600030E1730740F06C36774150F488E290E025
:1038700048E250E009C089E190E04DE250E004C028
:103880008DE290E049E150E023E0569547952A9576
:10389000E1F760E070E0409363035093640360934A
:1038A00065037093660333E0969587953A95E1F743
:1038B000A0E0B0E080935F0390936003A093610366
:1038C000B093620388CF1092720088ED90E09093DD
:1038D0003B0380933A0381E08093390310923803CD
:1038E0000E947607B5CF8EE193C9CF92DF92EF9217
:1038F000FF920F931F93CF93DF931F92CDB7DEB745
:10390000182F062FE42E862F880F8E5F99830E9432
:10391000290B83E00E94290BF12EC12E9981D92E0B
:103920008C2D8F19801798F4F601E7FE02C0849160
:1039300001C080810E94290B182F80E00E94290B72
:103940008123FFEFCF1ADF0A8111EACF01C081E0A6
:103950000F90DF91CF911F910F91FF90EF90DF902B
:10396000CF900895CF931092E9031092E80388EE68
:1039700093E0A0E0B0E08093EA039093EB03A09380
:10398000EC03B093ED0329E431E03093E703209397
:10399000E6032FEF3FEF3093F3032093F2031092EF
:1039A00039041092380480933A0490933B04A09316
:1039B0003C04B0933D048BE591E0909337048093F1
:1039C000360481E090E090939604809395041092E1
:1039D00099041092980410929A049093830480930F
:1039E000820410928604109285041092870410922B
:1039F000710410927404109277048EE0809378041E
:103A0000C1E0C0937904C0937A0483E791E0909376
:103A1000700480936F041092690410926C048DE618
:103A200091E090936804809367040E943111709331
:103A30006604609365040E94311160936104709381
:103A4000620480936304909364040E943111609334
:103A50005D0470935E0480935F0490936004109201
:103A6000490410924F041092560410925704109279
:103A700058041092590483E0809355041092520424
:103A8000C093530482E080935404C093480480E2BE
:103A900090E090934D0480934C040E945A209093A0
:103AA000510480935004009761F020E2FC011192D0
:103AB0002A95E9F788E090E090934B0480934A04BC
:103AC00008C010924D0410924C0410924B041092B6
:103AD0004A0481E080934E0480914904882341F098
:103AE00061E081E00E94111060E081E00E94E10F3E
:103AF000EEE3F2E0E491F0E0EE0FFF1FE15DFD4F39
:103B00008591949190935B0480935A04E1E1F2E0F3
:103B1000E491E0935C046BED71E082E494E0CF917A
:103B20000C94ED0C1F93CF93DF93162FC8E8D4E0CD
:103B30009F8521E02093790390939B0310927A0351
:103B400010929C03682F86E394E00E94E901612FA4
:103B500086E394E00E94E9010E9488118C87DF913E
:103B6000CF911F9108951F93FC0199278827BC01CD
:103B7000E89411911032E9F3193010F01E30C8F3B7
:103B80001B3251F01D3249F4689406C00E94DA1DC0
:103B9000610F711D811D911D119110531A30B0F3E9
:103BA0003EF490958095709561957F4F8F4F9F4F14
:103BB0001F910895592F482F372F262F660F771FF3
:103BC000881F991F660F771F881F991F620F731F29
:103BD000841F951F660F771F881F991F0895E8940B
:103BE00009C097FB3EF490958095709561957F4F45
:103BF0008F4F9F4F9923A9F0F92F96E9BB279395F3
:103C0000F695879577956795B795F111F8CFFAF402
:103C1000BB0F11F460FF1BC06F5F7F4F8F4F9F4F33
:103C200016C0882311F096E911C0772321F09EE891
:103C3000872F762F05C0662371F096E8862F70E0F7
:103C400060E02AF09A95660F771F881FDAF7880FD1
:103C50009695879597F908950E943F1E0C94B01E83
:103C60000E94A21E38F00E94A91E20F0952311F098
:103C70000C94991E0C949F1E11240C94E41E0E9417
:103C8000C11E70F3959FC1F3950F50E0551F629FC1
:103C9000F001729FBB27F00DB11D639FAA27F00DA5
:103CA000B11DAA1F649F6627B00DA11D661F829FCC
:103CB0002227B00DA11D621F739FB00DA11D621FB1
:103CC000839FA00D611D221F749F3327A00D611DCE
:103CD000231F849F600D211D822F762F6A2F1124B0
:103CE0009F5750409AF0F1F088234AF0EE0FFF1FE3
:103CF000BB1F661F771F881F91505040A9F79E3F3A
:103D0000510580F00C94991E0C94E41E5F3FE4F37F
:103D1000983ED4F3869577956795B795F795E7958F
:103D20009F5FC1F7FE2B880F911D9695879597F998
:103D3000089597F99F6780E870E060E008959FEF2D
:103D400080EC089500240A94161617061806090632
:103D5000089500240A941216130614060506089501
:103D6000092E0394000C11F4882352F0BB0F40F489
:103D7000BF2B11F460FF04C06F5F7F4F8F4F9F4FC9
:103D8000089557FD9058440F551F59F05F3F71F04B
:103D90004795880F97FB991F61F09F3F79F08795B2
:103DA0000895121613061406551FF2CF4695F1DF3B
:103DB00008C0161617061806991FF1CF86957105CB
:103DC000610508940895E894BB2766277727CB01FF
:103DD00097F908950E942C1FA59F900DB49F900DF8
:103DE000A49F800D911D112408952F923F924F9210
:103DF0005F926F927F928F929F92AF92BF92CF927B
:103E0000DF92EF92FF920F931F93CF93DF93CDB783
:103E1000DEB7CA1BDB0B0FB6F894DEBF0FBECDBFFB
:103E200009942A88398848885F846E847D848C84CC
:103E30009B84AA84B984C884DF80EE80FD800C81D5
:103E40001B81AA81B981CE0FD11D0FB6F894DEBFB8
:103E50000FBECDBFED010895A29FB001B39FC00179
:103E6000A39F700D811D1124911DB29F700D811DA6
:103E70001124911D08950E944F1F0C94B01E0E94A2
:103E8000A91E58F00E94A21E40F029F45F3F29F0BD
:103E90000C94991E51110C94E41E0C949F1E0E94C8
:103EA000C11E68F39923B1F3552391F3951B550B6C
:103EB000BB27AA2762177307840738F09F5F5F4FFD
:103EC000220F331F441FAA1FA9F335D00E2E3AF03C
:103ED000E0E832D091505040E695001CCAF72BD054
:103EE000FE2F29D0660F771F881FBB1F26173707A5
:103EF0004807AB07B0E809F0BB0B802DBF01FF27D7
:103F000093585F4F3AF09E3F510578F00C94991EFC
:103F10000C94E41E5F3FE4F3983ED4F386957795C6
:103F20006795B795F7959F5FC9F7880F911D96958F
:103F3000879597F90895E1E0660F771F881FBB1FEB
:103F4000621773078407BA0720F0621B730B840B98
:103F5000BA0BEE1F88F7E09508950E94B41F68948D
:103F6000B1110C94E41E08950E94C91E88F09F5759
:103F700098F0B92F9927B751B0F0E1F0660F771F8D
:103F8000881F991F1AF0BA95C9F714C0B13091F083
:103F90000E94E31EB1E008950C94E31E672F782F72
:103FA0008827B85F39F0B93FCCF386957795679548
:103FB000B395D9F73EF490958095709561957F4FB4
:103FC0008F4F9F4F0895DB018F939F930E94EA1EAE
:103FD000BF91AF91A29F800D911DA39F900DB29FA5
:103FE000900D11240895991B79E004C0991F96172C
:103FF00008F0961B881F7A95C9F780950895AA1B2B
:10400000BB1B51E107C0AA1FBB1FA617B70710F0C3
:10401000A61BB70B881F991F5A95A9F780959095F5
:10402000BC01CD010895052E97FB1EF400940E945B
:104030002A2057FD07D00E94382007FC03D04EF4F9
:104040000C942A2050954095309521953F4F4F4F25
:104050005F4F089590958095709561957F4F8F4F34
:104060009F4F0895EE0FFF1F0590F491E02D0994E6
:10407000A1E21A2EAA1BBB1BFD010DC0AA1FBB1F6C
:10408000EE1FFF1FA217B307E407F50720F0A21BDE
:10409000B30BE40BF50B661F771F881F991F1A944B
:1040A00069F760957095809590959B01AC01BD0175
:1040B000CF010895CF93DF938230910510F482E011
:1040C00090E0E091AA04F091AB0420E030E0C0E081
:1040D000D0E0309711F14081518148175907C0F065
:1040E0004817590761F482819381209719F09B83C7
:1040F0008A832BC09093AB048093AA0426C0211519
:10410000310519F04217530718F49A01BE01DF0177
:10411000EF010280F381E02DDCCF2115310509F19B
:10412000281B390B2430310590F412968D919C9107
:1041300013976115710521F0FB019383828304C0FD
:104140009093AB048093AA04FD01329644C0FD0114
:10415000E20FF31F81939193225031092D933C93E9
:104160003AC02091A8043091A904232B41F4209156
:104170002201309123013093A9042093A8042091B7
:104180002001309121012115310541F42DB73EB7B1
:104190004091240150912501241B350BE091A80486
:1041A000F091A904E217F307A0F42E1B3F0B281788
:1041B000390778F0AC014E5F5F4F2417350748F0A0
:1041C0004E0F5F1F5093A9044093A80481939193CD
:1041D00002C0E0E0F0E0CF01DF91CF9108950F93AE
:1041E0001F93CF93DF93009709F48CC0FC013297A3
:1041F000138212820091AA041091AB0401151105DB
:1042000081F420813181820F931F2091A804309185
:10421000A9042817390779F5F093A904E093A804B5
:1042200071C0D80140E050E0AE17BF0750F41296BD
:104230002D913C911397AD012115310509F1D9015B
:10424000F3CF9D01DA013383228360817181860F70
:10425000971F8217930769F4EC0128813981260F93
:10426000371F2E5F3F4F318320838A819B81938349
:104270008283452B29F4F093AB04E093AA0442C057
:104280001396FC93EE931297ED01499159919E017B
:10429000240F351FE217F30771F480819181840F99
:1042A000951F029611969C938E938281938113960B
:1042B0009C938E931297E0E0F0E0D80112968D91D6
:1042C0009C911397009719F0F8018C01F6CF8D910E
:1042D0009C9198012E5F3F4F820F931F2091A8045D
:1042E0003091A9042817390769F4309729F41092FE
:1042F000AB041092AA0402C0138212821093A90484
:104300000093A804DF91CF911F910F910895A0E031
:10431000B0E0EDE8F1E20C94F91EEC01009721F415
:10432000CB010E945A20B8C0FC01E60FF71F9C0188
:1043300022503109E217F30708F4ACC0D9010D91FE
:104340001C91119706171707B0F00530110508F4F6
:104350009FC0C80104978617970708F499C00250B8
:104360001109061B170B019311936D937C93CF01D9
:104370000E94EF208DC05B01A01AB10A4C01800E93
:10438000911EA091AA04B091AB0440E050E0E12C52
:10439000F12C109709F44AC0A815B905D1F56D9014
:1043A0007C901197630182E0C80ED11CCA14DB0413
:1043B00080F1A3014A195B096A0182E0C80ED11C91
:1043C0001296BC9012971396AC91B5E0CB16D1041F
:1043D00040F0B282A38351834083D9016D937C93D3
:1043E0000AC00E5F1F4FC301800F911FF901918317
:1043F0008083EB2DFA2FE114F10431F0D7011396ED
:10440000FC93EE93129744C0F093AB04E093AA049C
:104410003FC08D919C9111974817590708F4AC0142
:104420007D0112960D90BC91A02DB3CF8091A80470
:104430009091A90488159905E1F446175707C8F427
:104440008091200190912101009741F48DB79EB792
:104450004091240150912501841B950BE817F90721
:10446000C8F4F093A904E093A804F9017183608370
:104470000FC0CB010E945A207C01009759F0A8017F
:10448000BE010E945622CE010E94EF20C70104C047
:10449000CE0102C080E090E0CDB7DEB7EEE00C9434
:1044A000151F81E090E0F8940C946622FB01DC017A
:1044B00002C001900D9241505040D8F70895FB0181
:1044C000DC0101900D920020E1F7089511E0CFE2A8
:1044D000D1E004C0FE010E9432202196C033D107F2
:0644E000C9F7F894FFCFBC
:1044E6000F00F401D0070400045A015A015A015A78
:1044F600015A0101FFFFFFFF00E10000000000007C
:104506000000AC0480009C01B501CF01EA0107025E
:104516002602470269028E02B502DE020A0300C1C4
:10452600808100000000000000B60BAC104C0CCCE3
:104536000BD70B740C500C00000000E901B90119EF
:10454600028D01B1019D018E0100000000C704002B
:104556000000008404213E67726D733E6131363E71
:104566006131363E673200443A20537461727420DA
:1045760062616C616E63696E672100453A2046612F
:10458600696C656420746F2064657465637420616A
:104596006E6420696E697469616C697A6520494D3B
:1045A600552100443A20636F6D6D616E642072651B
:1045B6006365697665643A20000D0A00443A207303
:1045C60074616E64557000443A206C6179446F776B
:1045D6006E00453A204572726F7220696E20636FD5
:1045E6006D6D616E642070617273696E672E205303
:1045F60069676E20756E6B6E6F776E2E00453A207A
:104606004572726F7220696E20636F6D6D616E64A4
:104616002070617273696E672E20546F6F206D6112
:104626006E79207370616365732E00453A2045727A
:10463600726F7220696E20636F6D6D616E6420709B
:10464600617273696E672E20546F6F2066657720DE
:1046560076616C7565732E00453A20436F6D6D610A
:104666006E64206E6F74206B6E6F776E2E00453A07
:10467600204661696C656420746F206465746563A7
:104686007420616E6420696E697469616C697A650B
:10469600206D61676E65746F6D65746572210000CB
:00000001FF
